:1000000093C00000AFC00000ADC00000ABC0000056
:10001000A9C00000A7C00000A5C00000A3C0000048
:10002000A1C000000C9454119DC000009BC00000B2
:1000300099C000000C9483180C94F6180C94EC18DA
:100040000C9446170C947D170C9473178BC000000A
:100050000C94AC1687C000000C94781683C0000086
:1000600081C000007FC000000C947F147BC00000A2
:1000700079C0000077C0000075C0000073C00000A8
:1000800071C000006FC000006DC000002B0B200B82
:10009000380BF40B110C200C8E0CA00C600F600FB1
:1000A000650F6A0F740F790F7E0F830F880F8D0F06
:1000B000920F970F9C0FA10FA60FAB0FB00FB50FAC
:1000C000BA0FBF0FC40FC90FCE0FD30FD80FDD0F5C
:1000D000FF0FFF0FFF0F6F0FE20FE70FEC0FF10F96
:1000E000181018101C102010441044104410441014
:1000F0004410441044104410441044104410441060
:10010000441044104410441044104410441024106F
:1001100028102C103010341038100718FC17F11765
:10012000DB17E617D017C21711241FBECFEFD0E49C
:10013000DEBFCDBF13E0A0E0B1E0E8E1F3E300E013
:100140000BBF02C007900D92AA39B107D9F728E07A
:10015000AAE9B3E001C01D92AF38B207E1F708D0B9
:100160000C948A194DCFF8940E943719789405C0E1
:10017000FADF73D3C7D3A895FCCF61E080E693E0A4
:100180000E948D1160E080E693E00C94BF1160E066
:100190008BE493E00E948D1162E08BE493E00C9479
:1001A000BF1161E085E493E00E948D1160E085E479
:1001B00093E00C94BF1161E082E493E00E948D1102
:1001C00061E082E493E00C94BF1161E082E493E08B
:1001D0000E948D1160E082E493E00C94BF1161E015
:1001E00086E393E00E948D1161E086E393E00C9436
:1001F000BF1160E086E393E00E948D1161E086E329
:1002000093E00C94BF1160E086E393E00E948D11AF
:1002100062E086E393E00C94BF1161E083E393E036
:100220000E948D1161E083E393E00C94BF1160E0C4
:1002300083E393E00E948D1161E083E393E00C94EB
:10024000BF1160E083E393E00E948D1162E083E3DD
:1002500093E00C94BF11FC012081622B6083089510
:10026000FC018081682381E009F480E008956095B5
:10027000FC012081622360830895FC0110820895AF
:10028000FC0120813181622B732B7183608308957F
:10029000FC01808191816823792381E090E0672BC4
:1002A00011F480E090E0089560957095FC01208144
:1002B000318162237323718360830895FC0111826D
:1002C00010820895FC018181811109C08081811112
:1002D00002C081E0808381E081838081089580E095
:1002E0000895FC018181882351F08081861307C025
:1002F0008E3F11F481E001C08F5F808311820895E9
:1003000021E0FC018181811101C020E0822F08954C
:10031000FC011286138212821582148217821682C1
:100320000895FC019285892F827091FF04C0828517
:100330008260828781E00895FC0182852681378171
:100340008085918528173907D1F084819581A08116
:10035000B181A80FB91F6C93848195810196958313
:100360008483868197810196978386832481358152
:10037000808591852817390711F415821482089514
:100380001F93CF93DF93EC01172FD6DF612FCE01A0
:10039000D3DFDF91CF911F910895CF92DF92EF923B
:1003A000FF92CF93DF93EC016A017B01642FC4DFDE
:1003B00099278F2D7E2D6D2DCE01BEDFB7018827A9
:1003C0009927CE01B9DF6F2D772788279927CE018E
:1003D000B3DFDF91CF91FF90EF90DF90CF90089542
:1003E000EF92FF920F931F93CF93DF937C01EA016B
:1003F0008A01060F171FC017D10721F06991C701A5
:100400009BDFF9CFCDB7DEB7E6E00C947B19FC019A
:1004100092859D7F92870895FC019285892F817036
:1004200090FF04C082858160828781E00895FC018D
:10043000868197810895FC01268137818085918589
:10044000821B930B0895FC01828586819781892BFD
:10045000E9F082819381A081B181A80FB91F8C91AD
:10046000228133812F5F3F4F33832283268137815F
:10047000215031093783268342815381208531857C
:100480004217530721F413821282089580E00895E1
:100490000F931F93CF93DF938C01D5DFC82FD0E04C
:1004A000C801D1DF9E01382BC901DF91CF911F9187
:1004B0000F910895CF92DF92EF92FF921F93CF9307
:1004C000DF93EC01C0DFC82ED12CE12CF12CCE0142
:1004D000BADF182FCE01B7DF90E0A0E0B0E0DC017A
:1004E00099278827912BC82AD92AEA2AFB2ACE01E4
:1004F000AADFA7019601582BCA01B901DF91CF915C
:100500001F91FF90EF90DF90CF900895A0E0B0E0B2
:10051000ECE8F2E00C945D196C018B017A01C0E00B
:10052000D0E0C017D10771F0F60186819781892B41
:1005300011F48E0107C0C60186DFF70181937F01A8
:100540002196EFCFC801CDB7DEB7E8E00C9479195A
:10055000FC0192859E7F92870895FC01138212828E
:100560001582148217821682089525E030E0FC017E
:1005700033832283118210820895EF92FF920F93AA
:100580001F93CF93DF93EC017B016A817B8161151F
:10059000710551F480919A0381111EC081E080930E
:1005A0009A030C811D8110C0888199817DD08111B1
:1005B000F1CF12C0D801ED91FC91309711F0C70135
:1005C0000995F801028113810115110599F744D0AD
:1005D0009983888310929A03CDB7DEB7E6E00C9436
:1005E0007B19DC011496ED91FC911597309729F455
:1005F00015967C936E93149708958281938100974A
:1006000011F0FC01FACF73836283FB011382128223
:1006100008950895089508950895089580E008952F
:1006200080E090E0089560E070E0CB0108950895C7
:1006300080E0089580E00895089580E0089580E0C6
:10064000089580E00895089580E00895089508953C
:1006500008950895089508950C9406110895CF9370
:10066000DF93EC010E940311898381E08883DF918D
:10067000CF910895CF93DF93EC010E9406119A83E6
:10068000898381E08883DF91CF910895CF93DF93B1
:10069000EC010E94DE1069837A838B839C8381E066
:1006A0008883DF91CF9108950F931F93CF93DF93AA
:1006B0008C01EB010E9406119C01201B310B81E093
:1006C0002C173D0708F480E0DF91CF911F910F9127
:1006D0000895CF93DF93FC012081213031F4EC01A8
:1006E0000E9403119981891B01C080E0DF91CF91A5
:1006F0000895CF93C62FEDDF91E08C1708F490E0BA
:10070000892FCF910895CF93DF93FC012081213071
:1007100041F4EC010E94061129813A81821B930B5E
:1007200002C080E090E0DF91CF910895CF93DF93F6
:10073000EB01E9DF21E08C179D0708F420E0822F10
:10074000DF91CF9108950F931F93CF93DF93FC0117
:100750002081213061F4EC010E94DE1009811A81B0
:100760002B813C81601B710B820B930B03C060E0FB
:1007700070E0CB01DF91CF911F910F910895CF923F
:10078000DF92EF92FF926A017B01DDDF21E06C15C1
:100790007D058E059F0508F420E0822FFF90EF90E5
:1007A000DF90CF90089510929E0310929D031092B7
:1007B0009C0310929B030895CF93DF93EC01188E56
:1007C0001F8A8091DC0188838F5F8093DC01ED813B
:1007D000FE810995E0916B03F0916C0309959C8370
:1007E0008B83EF81F88509959A838983EF81F8855A
:1007F0000995A0E0B0E04091DD015091DE016091EB
:10080000DF017091E00184179507A607B70768F428
:10081000EF81F8850995A0E0B0E08093DD01909329
:10082000DE01A093DF01B093E00180919D039091E0
:100830009E03892B29F4D0939E03C0939D0306C089
:10084000E0919B03F0919C03D08FC78BD0939C03C6
:10085000C0939B03DF91CF910895AF92BF92CF9247
:10086000DF92EF92FF921F93CF93DF93C0919D038E
:10087000D0919E0311E0E0906B03F0906C03C09068
:100880007103D0907203209729F1EF81F8850995C3
:10089000892B41F069817A818B819C81F6010995D0
:1008A0008823A1F0EF81F8850995892B51F0F70194
:1008B00009955C01EF81F88509959A838983BC824B
:1008C000AB82E985FA850995811108C00F88D88D1A
:1008D000C02DD9CF112361F029D00AC0EB85FC854A
:1008E0000995E985FA850995882381F310E0EECF13
:1008F000DF91CF911F91FF90EF90DF90CF90BF904D
:10090000AF900895CF93DF93C0919D03D0919E0344
:10091000209749F0ED85FE85309709F009950F88FD
:10092000D88DC02DF5CFDF91CF910895089508950A
:1009300085E090E008958091A403811105C0809125
:10094000D703811101C0089582E008950F931F938A
:10095000CF93DF938091D703813071F028F08230FC
:1009600089F0833091F144C08091A403882309F475
:1009700041C081E08093D7038FE993E087DE82E076
:100980008093D703C5EAD3E00091730310917403F9
:100990008881882391F069817A818B819C8122E30F
:1009A00030E040E050E0F8010995882331F01882EA
:1009B0008091A40381508093A4032596F3E0C73D62
:1009C000DF0731F783E08093D70344E650E060E02F
:1009D00070E08FE993E0D3DE811102C082E005C0B0
:1009E0008091A403882321F081E08093D70302C083
:1009F0001092D703DF91CF911F910F910895089521
:100A00000895089508950895CF93DF93E5EAF3E0FC
:100A100020E030E09081911118C095E0929FE001B4
:100A2000939FD00D1124CB55DC4F8883E0916D034B
:100A3000F0916E03099569837A838B839C838091FF
:100A4000A4038F5F8093A40306C02F5F3F4F3596AA
:100A50002A303105F9F6DF91CF91089580E00895AD
:100A60000895682F8DEF93E0FBCB83E0FADF8111CF
:100A700082E0089583E0F5DF811103C084E690E011
:100A8000089580E090E00895682F8DEF93E0EFCB1C
:100A90008DEF93E0F2CBCF93DF93EC0184E0E1DFC5
:100AA00081110AC088818093FB0389818093FC03B4
:100AB00066E08DEF93E0CFDBDF91CF910895CF9388
:100AC000DF93EC0188E0CDDF81110AC0888180933B
:100AD000EF0389818093F0036AE08DEF93E0BBDB45
:100AE000DF91CF910895CF93DF93EC0180E1B9DFDF
:100AF00081110DC088818093E20389818093E30393
:100B00008A818093E40362E18DEF93E0A4DBDF91BF
:100B1000CF910895CF9384E0A4DF882399F081E0FA
:100B2000A0DF81110AC061E08DEF93E094DB82E0E9
:100B3000ABDF8BEF93E0ECD007C0DAD0811104C0BB
:100B400084E0A2DFC0E001C0C1E088E08ADF882342
:100B5000A9F081E086DF81110AC061E08DEF93E0AA
:100B60007ADB82E091DF8FEE93E066D206C054D24A
:100B7000811103C088E088DF01C0C1E080E171DF3E
:100B8000882399F081E06DDF81110AC061E08DEF6B
:100B900093E061DB82E078DF82EE93E0BED30CC0AD
:100BA000ACD3811109C080E16FDFC11105C0EFDA5C
:100BB000F8DA0BDB81E068DFCF91089585EF93E0F1
:100BC000D4CCBC0185EF93E0D8CCBC0185EF93E099
:100BD00008CD8BE495E09093F2038093F10381EFCD
:100BE00093E0F3CF89EE93E0C0CCBC0189EE93E0B3
:100BF000C4CCBC0189EE93E0F4CC8FE595E09093F2
:100C0000E6038093E50385EE93E0F3CF8CED93E06C
:100C1000ACCCBC018CED93E0B0CCBC018CED93E08E
:100C2000E0CC83E795E09093D9038093D80388EDD7
:100C300093E0F3CFACDAB5DAC8DAE0910202F091D2
:100C400003020995E091FA01F091FB010995B6DFE5
:100C5000C0DF6AEF71E082E092E051D0C3DFCDDF08
:100C60006AEF71E082E092E0DED1D0DFDADF6AEF96
:100C700071E082E092E048D381EE91E09DCD8091D9
:100C8000FE03883010F48F5F1AC0803120F48F5F2C
:100C90008093FE0310C0E091800490918104E917D5
:100CA00058F481E08E0F80938004F0E0E050FC4F18
:100CB0008081811106C089CA803121F481E180934D
:100CC000FE0379CA82DAE0918404F09185040680FB
:100CD000F781E02D0995E0918204F091830406806C
:100CE000F781E02D09951092FE031092FF030895FD
:100CF00081E09091FF03911101C080E008959093ED
:100D0000850480938404709383046093820408951F
:100D1000CF92DF92FF920F931F93CF93DF93CDB7C4
:100D2000DEB7A0970FB6F894DEBF0FBECDBFF09030
:100D3000FF03F11094C06C0181E08093FF03E09108
:100D40008404F09185040680F781E02D0995E091F7
:100D50008204F09183040680F781E02D09951092BA
:100D60008104109280048E010F5F1F4F80E2F80112
:100D700011928A95E9F7F601808189838A838181BE
:100D80008B8380958C8340E250E090E861E0F8012D
:100D9000E50FF11D708179232F2D30E0E1E0EF0D9B
:100DA00082E08F0DD901A050BC4F6C93772379F06E
:100DB000F0E0E050FC4F1082E82FF0E0E050FC4FF4
:100DC0001082E3E0EF0DF0E084E0F80E02C0F82EB0
:100DD000F0E0E050FC4F10829695415029F09111BF
:100DE000D6CF5F5F90E8D3CFF09281041092FE03DC
:100DF000ECD91B828FE396E09A8389831E8283E07D
:100E00008C83E0918204F09183040280F381E02DD1
:100E1000C801099582E08B831A82198281E08E8352
:100E2000E0918404F09185040280F381E02DC801F3
:100E30000995E0918404F09185040480F581E02D0A
:100E40006FEF7FEFCB010995E0918204F09183046D
:100E50000480F581E02D6FEF7FEFCB010995A0961F
:100E60000FB6F894DEBF0FBECDBFDF91CF911F91BB
:100E70000F91FF90DF90CF90089520EEFC0120832A
:100E8000089520E4FC012183089520EEFC012183D4
:100E9000089520EDFC012183089520EFFC012183BA
:100EA000089528E4FC012183089528E0FC012183B2
:100EB000089528E8FC012183089520E2FC012183A4
:100EC000089520EAFC012183089520E6FC01218396
:100ED000089520E1FC012183089520E9FC0121838C
:100EE000089520E5FC012183089520EDFC01218374
:100EF000089520EBFC012183089520E7FC01218364
:100F0000089526E1FC012183089524EBFC0121834F
:100F100008952AE1FC012183089526E0FC01218344
:100F2000089526E8FC012183089526EAFC01218327
:100F3000089526E4FC012183089522EEFC0121831B
:100F4000089522E5FC012183089522E6FC01218316
:100F5000089522EFFC01218308952EE9FC012183ED
:100F6000089526EDFC012183089520E8FC012183EA
:100F7000089590918704903120F49F5F90938704A7
:100F800024C0983120F49F5F9093870415C0E091AE
:100F9000090520910A0580918604E21770F48F5F9D
:100FA0008093860481E08E0F80930905F0E0E75777
:100FB000FB4F8081811109C008C9983139F499E14A
:100FC000909387048F5F80938604F5C8883570F40A
:100FD0008F5F80938604F9D8809186048835D9F490
:100FE0001092090588E1809387040895EED8E09176
:100FF0000D05F0910E050680F781E02D0995E09131
:101000000B05F0910C050680F781E02D09951092F3
:10101000870410928804089581E0909188049111CA
:1010200001C080E0089590930E0580930D057093A4
:101030000C0560930B050895EF92FF921F93CF93D9
:10104000DF9300D000D000D0CDB7DEB71091880478
:1010500011118FC07C0181E080938804E0910D051F
:10106000F0910E050680F781E02D0995E0910B05C2
:10107000F0910C050680F781E02D099510920A0584
:1010800010920905F7018081898381818A8340E17B
:1010900050E090E861E0E1E0F0E0EC0FFD1FE50FCB
:1010A000F11D70817923212F30E0E1E0E10F82E032
:1010B000810FD901A757BB4F6C93772371F0F0E0F4
:1010C000E757FB4F1082E82FF0E0E757FB4F108205
:1010D000E3E0E10FF0E01C5F02C0182FF0E0E757FB
:1010E000FB4F10829695415029F09111D4CF5F5F4C
:1010F00090E8D1CF10930A051092870410928604CD
:1011000064D81B8289EB97E09A8389831E8284E0EE
:101110008C83E0910B05F0910C050280F381E02DAA
:10112000CE010196099582E08B831A82198281E0B3
:101130008E83E0910D05F0910E050280F381E02D84
:10114000CE0101960995E0910D05F0910E05048000
:10115000F581E02D6FEF7FEFCB010995E0910B0555
:10116000F0910C050480F581E02D6FEF7FEFCB014E
:10117000099526960FB6F894DEBF0FBECDBFDF915E
:10118000CF911F91FF90EF90089529EFFC012083EC
:101190000895FC011182089520E8FC01218308953F
:1011A00020E4FC012183089520EDFC0121830895B2
:1011B00020EDFC01218308952EE8FC012183089590
:1011C00021EEFC012183089521E1FC012183089592
:1011D00021EFFC012183089527FD20C030E051E07C
:1011E0003817E1F0A22FB0E092E0920FE1E0E20FB9
:1011F000762F7423AD5EBA4F1C92772339F0F0E05E
:10120000ED5EFA4F50832D5FE92F01C0292FF0E0EA
:10121000ED5EFA4F508366953F5FE2CF822F0895CF
:1012200080911105843028F48F5F809311050C9410
:10123000DB00E091930580919405E81788F4F0E0D5
:10124000ED5EFA4F8081882319F00E94DB0002C016
:101250000E94E500809193058F5F80939305089528
:10126000809110058230A0F580910F0581110DC08D
:1012700081E080930F050E94E500E0919705F091D1
:1012800098050680F781E02D09956EE289E995E0E1
:1012900030DA882389F189E995E0E1D9E091970571
:1012A000F09198050480F581E02D6FEF7FEFCB0181
:1012B00009950E94DB00809110058F5F80931005D7
:1012C00081E0809311051092930510920F05089507
:1012D0000E94E500E0919705F09198050680F7815E
:1012E000E02D0995E0919505F09196050680F7812E
:1012F000E02D099510921205089581E09091120554
:10130000911101C080E0089590939805809397050E
:1013100070939605609395050895A6E0B0E0E3E923
:10132000F9E00C9460192091120521116DC08C0117
:10133000FF24F394F0921205E0919705F09198053F
:101340000680F781E02D0995E0919505F0919605CD
:101350000680F781E02D09951092930520E0F801B1
:10136000408160E887E038DF282FF801418160E1A3
:1013700085E032DF282FF801428160E888E02CDF29
:1013800080939405109211051092100510920F058C
:101390000E94E5001B8280E199E09A8389831E8286
:1013A00085E08C83E0919505F09196050280F381AC
:1013B000E02DCE010196099584E08B831A82198273
:1013C000FE82E0919705F09198050280F381E02D6F
:1013D000CE0101960995E0919705F091980504805A
:1013E000F581E02D6FEF7FEFCB010995E091950539
:1013F000F09196050480F581E02D6FEF7FEFCB0132
:10140000099589E995E02BD92696E5E00C947C199D
:101410002BE0FC01218327E42283089528EAFC01C4
:101420002083089528E5FC012083089528E1FC012C
:101430002083089528E9FC012083089526E2FC0119
:101440002083089526ECFC012083089528E6FC0102
:101450002083089522ECFC012083089524E3FC01FD
:101460002083089524E9FC01208308952AE6FC01E5
:10147000208308952AEEFC01208308950895809129
:101480004802811103C085E090E0089580E090E07B
:101490000895E091E605F091E705309781F0078027
:1014A000F085E02D099590914802911105C088239F
:1014B00019F082E08093480280914802089580E00C
:1014C000089584E592E00C94170289E492E00C946C
:1014D0009101682F89E492E00C949C01BC0189E49D
:1014E00092E00C94C001AB01BC0189E492E00C9441
:1014F000CD01AB01BC0189E492E00C94F00189E4D8
:1015000092E00C94070284E592E00C940C0284E5CE
:1015100092E00C94230284E592E00C94480284E566
:1015200092E00C945A02AB01BC0184E592E00C9469
:10153000860284E592E00CC8CF93C82F61E070E08A
:1015400080E096E00E944801892B71F0C09325024B
:1015500061E070E080E096E00E94540162E070E09B
:1015600080E096E00E944001CF91089584E592E0EA
:101570000C94880184E592E00C94AD0284E592E03D
:101580000C949101AB01BC0184E592E00C94F00154
:1015900084E592E00C94070289E492E00C948801BF
:1015A00089E492E00C94170289E492E00C941B0207
:1015B00089E492E00C940C02AB01BC0189E492E056
:1015C0000C94860289E492E00C94A8028AEF95E0DC
:1015D0000C94B502BC018AEF95E00C94BD0284EF37
:1015E00095E00C94B502BC0184EF95E00C94BD022B
:1015F0008EEE95E00C94B50288EE95E00C94B50261
:10160000BC0188EE95E00C94BD02A3E1B0E0EBE0F4
:10161000FBE00C9461192091E6053091E705211556
:10162000310509F494C1E0919B058E2F90E0FC01F7
:101630003297E830F10520F4EA5BFF4F0C944A1929
:1016400082E080939B058093480280E090E0C2DFB7
:1016500085E096E00FD86AEF70E085E096E066D806
:101660008111BEC084E080939B0585E096E002D89E
:101670006AEF70E085E096E059D88111B1C0109210
:10168000230282E096E00E943A03809123028111B6
:101690002EC068EE73E082E096E048D8811198C0D1
:1016A000E091E605F091E7050784F089E02D64E616
:1016B00070E081E00995E091E605F091E70507808B
:1016C000F085E02D0995882301F3E091E605F0917E
:1016D000E7050184F285E02D63E272E081E009957F
:1016E000809123028F3F89F610922302CECF10E023
:1016F00080912302E091E605F091E7051817B8F410
:101700000784F089E02D6AEF70E00995E091E60525
:10171000F091E7050780F085E02D0995182F68EE18
:1017200073E082E096E002D8882311F351C001886B
:10173000F289E02D0995E091E605F091E705018435
:10174000F285E02D64E272E081E00995115012DF2C
:1017500015DF112359F1E091E605F091E7050780C7
:10176000F085E02D0995803148F4E091E605F0918F
:10177000E7050780F085E02D099501C080E1912FF4
:10178000811708F4982FE091E605F091E7050184B0
:10179000F285E02DBE016F5F7F4F892F0995181BE1
:1017A000BE016F5F7F4F90E0EDDED3CFF1DE61E0F1
:1017B00070E080E096E00E94400183E292E020DF4A
:1017C00085E080939B0585E096E00E943A03BFC0C8
:1017D000E091E605F091E7050188F289E02D099591
:1017E00088E080939B05B3C064E670E085E096E0F6
:1017F0000E94960362E070E0882329F080E096E082
:101800000E945401EDCF80E096E00E944801892BB0
:1018100009F49DC086E080939B0585E096E00E94D8
:101820003A036AEF70E085E096E00E94960381112A
:10183000D7CF87E080939B0585E096E00E943A032E
:101840006AEF70E085E096E00E9496038111C8CFB0
:1018500062E070E080E096E00E944801892B09F484
:1018600052C09EDE8E5F898B809124028A8B80918C
:1018700025028B8BE091E605F091E705078CF0A13E
:10188000E02D0995E091E605F091E7050384F485E4
:10189000E02DBE016F5E7F4F83E0099589DE80DE1B
:1018A000082F002309F180DE8823F1F0003110F4C5
:1018B000102F01C010E178DE811710F475DE182FAB
:1018C000BE016F5F7F4F812F90E076DEE091E605ED
:1018D000F091E7050384F485E02DBE016F5F7F4F33
:1018E000812F0995011BDDCF6DDE62E070E080E0A5
:1018F00096E00E945401E091E605F091E705078823
:10190000F08DE02D0995E091E605F091E70503885B
:10191000F489E02D0995811163CF19C0D9015B9637
:10192000ED91FC915C970995E091E605F091E70552
:101930000584F685E02D8FEF9FEF099589E051CF63
:1019400080E090E050DE10929B0510924802639672
:10195000E4E00C947D19BC0188EE95E00C94F10252
:10196000CF93DF93EC0180E096E00E945E01E3E21A
:10197000F2E0108214821382F9DD0EDE3DDE26DEF7
:101980002EDE36DED093E705C093E605EBA1FCA181
:10199000099586E0E3E9F3E0ACE9B5E001900D924A
:1019A0008A95E1F7E091E605F091E7050380F4817F
:1019B000E02D8CE995E00995E091E605F091E705C9
:1019C0000584F685E02D8FEF9FEF09951092480270
:1019D00010929B058AE092E00E94DC03DF91CF9198
:1019E0000895089585E090E008958091480681115A
:1019F00082E00895A0E0B0E0E0E0FDE00C945B1927
:101A0000C0914B06D0914C0610924806E0907303AB
:101A1000F090740301E0C0908503D0908603A090FD
:101A20006D03B0906E03209709F449C01C811130FA
:101A3000A9F42A853B854C855D8521153105410535
:101A4000510561F06E817F8188859985F70109953F
:101A5000882311F01D8202C0109348068D819C815D
:101A6000981749F18C8361E0813009F060E0898149
:101A70009A81F60109958C81813039F4F501099537
:101A80006E837F83888799870CC01E821F82188689
:101A900019861E861F86188A198A1A861B861C8636
:101AA0001D868A859B85AC85BD85892B8A2B8B2BD2
:101AB00011F0009348060C88DD89C02DB4CFCDB756
:101AC000DEB7EAE00C947719089508951F93CF9339
:101AD000DF93EC01E0918903F0918A0389819A8177
:101AE0000995182F8C81113081F581111BC01C8341
:101AF000E0916D03F0916E0309956F837887898774
:101B00009A871D83E0916B03F0916C0309959C8784
:101B10008B871E821E861D86E0917503F0917603E9
:101B200081E009958C818823E9F18D818823D1F1A9
:101B3000E0917103F091720360E375E78B859C85FA
:101B40000995882379F11D822DC0882399F08E8113
:101B5000811110C081E08E83E0916B03F0916C03E2
:101B600009959E878D87E0917503F091760381E05A
:101B7000099510C08D859E85009761F0E0917103F5
:101B8000F091720360E375E70995882319F01E82CE
:101B90001E861D861C821D821C861B861F8218863F
:101BA00019861A86DF91CF911F91089581E596E0FD
:101BB0000C943A0385E090E008956EE170E081E5D1
:101BC00096E00E949603811182E00895CF93DF93FF
:101BD000C0914F06D0915006209731F0CE0176DFAC
:101BE0000F84D889C02DF8CF81E596E00E943A0392
:101BF000DF91CF910895089585E090E00895809158
:101C00005806909159069093570680935606E09196
:101C10005606F0915706309769F00084F185E02D63
:101C20000995811109C0E0915606F0915706828905
:101C30009389E9CF80E0089582E00895CF93DF9300
:101C4000E0915606F0915706309709F446C0028499
:101C5000F385E02D0995D82FC0E0E0915606F0916C
:101C600057060484F585E02D0995C817D8F4A0918E
:101C70005606B09157061E96ED91FC911F9783E092
:101C8000C89FE00DF11D11248081D81318C0C181B7
:101C9000D2811696ED91FC9117970995FE01099551
:101CA0008F3F79F4E0915606F0915706C089D189AB
:101CB0000680F781E02D0995FE01099502C0CF5FEE
:101CC000CCCFE0915606F09157060480F581E02DC7
:101CD00009951092570610925606DF91CF910895FC
:101CE000089508958FE592E00C94DC032091580646
:101CF00030915906232B29F4909359068093580666
:101D000006C0E0915406F0915506938B828B909318
:101D1000550680935406FC01138A128A0895909305
:101D20005B0680935A06089580915A0690915B064F
:101D3000089510925B0610925A06089581E0209152
:101D40005A0630915B06232B09F480E00895E09158
:101D50005A06F0915B06309711F08181089580E07A
:101D60000895DC011596ED91FC91169782E0099596
:101D700082E0089590935B0680935A0608958AEB5B
:101D80009EE090935D0680935C068CE596E0E3CD43
:101D900010925B0610925A06F2DF88E792E0A6CF17
:101DA00082E00895CF93DF93EC01E985FA850190F5
:101DB000F081E02D0995E985FA850280F381E02D17
:101DC00081E00995E985FA850280F381E02D87E0BD
:101DD0000995E985FA850284F385E02D0995ED8161
:101DE000FE8180E0099580E0DF91CF910895FF9218
:101DF0000F931F93CF93DF93EC01EF81F88502805F
:101E0000F381E02D0995811106C0ED81FE8182E00C
:101E1000099582E03BC0EF81F8850190F081E02DCB
:101E20000995EF81F8850480F581E02D0995F82E5C
:101E3000EF81F8850480F581E02D0995182FEF8159
:101E4000F8850480F581E02D0995082FEF81F8854C
:101E50000484F585E02D099582E0F81649F083E0C9
:101E6000F81649F081E0F8120BC0602F812F13D0D3
:101E7000602F812FC9D0602F812F0BD1182F01C067
:101E800013E0ED81FE81812F0995812FCDB7DEB75B
:101E9000E5E00C947C19A2E0B0E0E1E5FFE00C94F1
:101EA0006319813009F0ABC0862F90E0FC013197B7
:101EB000E232F10508F0A3C0E25BFF4F0C944A192F
:101EC000CE0101960E94410790C0CE0101960E946A
:101ED00045078BC0CE0101960E94490786C0CE01FE
:101EE00001960E944D0781C0CE0101960E945107C4
:101EF0007CC0CE0101960E94550777C0CE010196A5
:101F00000E94590772C0CE0101960E945D076DC004
:101F1000CE0101960E94610768C0CE0101960E9421
:101F2000650763C0CE0101960E9469075EC0CE01BD
:101F300001960E946D0759C0CE0101960E9471075B
:101F400054C0CE0101960E9475074FC0CE01019684
:101F50000E9479074AC0CE0101960E947D0745C0C4
:101F6000CE0101960E94810740C0CE0101960E94D9
:101F700085073BC0CE0101960E94890736C0CE017D
:101F800001960E948D0731C0CE0101960E949107F3
:101F90002CC0CE0101960E94950727C0CE01019664
:101FA0000E94990722C0CE0101960E949D071DC084
:101FB000CE0101960E94A10718C0CE0101960E9491
:101FC000A50713C0CE0101960E94A9070EC0CE013D
:101FD00001960E94AD0709C0CE0101960E94B1078B
:101FE00004C0CE0101960E94B507CE0101960E9461
:101FF0003D07CE0101960E94E10580E001C083E02B
:102000002296E2E00C947F19A2E0B0E0EAE0F0E171
:102010000C946319823009F037C0862F90E0FC01E0
:102020003197ED31F10580F5E059FF4F0C944A19D5
:10203000CE010196AED81FC0CE010196ADD81BC00F
:10204000CE010196ADD817C0CE010196ADD813C010
:10205000CE010196ADD80FC0CE010196ADD80BC010
:10206000CE010196ADD807C0CE010196ADD803C010
:10207000CE010196ADD8CE01019687D8CE0101964A
:102080000E94F50580E001C083E02296E2E00C9416
:102090007F19A3E0B0E0EFE4F0E10C946319833022
:1020A00009F058C0633209F441C098F4633191F1EA
:1020B00028F4613019F1623009F14CC0693171F1D5
:1020C0006A3181F1683109F045C0CE010196AAD983
:1020D00038C06632B9F048F4643261F1653209F013
:1020E00039C0CE010196B2D92CC0683239F170F0F6
:1020F000693281F5CE010196BDD923C0CE0101968A
:102100008DD91FC0CE010196A9D91BC0CE01019661
:10211000A9D917C0CE0101969DD913C0CE01019651
:1021200089D90FC0CE01019681D90BC0CE0101968D
:1021300085D907C0CE01019685D903C0CE0101968D
:1021400095D9CE01019664D9CE0101960E94090667
:1021500080E001C083E02396E2E00C947F191092A6
:102160006106109262061092630610926406109245
:102170006006109270001092B20080E28093B60068
:102180008091B60080FDFCCF8091B60080FDFCCF31
:1021900083E08093B1008091B60081FDFCCF109266
:1021A000B0008091B60083FDFCCF8FE18093B30037
:1021B00087E087BB82E0809370000895809161067C
:1021C00090916206A0916306B0916406309160061A
:1021D0002091B20045E0880F991FAA1FBB1F4A95A6
:1021E000D1F7830F911DA11DB11D55E0880F991FD7
:1021F000AA1FBB1F5A95D1F7BC01CD01620F711DFB
:10220000811D911D0895DADF862F0895D7DFCB0158
:102210000895CF93DF93D82FC62FF5DF282F30E016
:102220002D1B31096C2F70E081E0621773070CF0F1
:1022300080E0DF91CF9108950F931F93CF93DF93A9
:102240008C01EB01E3DF9C01201B310B81E0C21705
:10225000D30708F080E0DF91CF911F910F9108958F
:102260008F929F92AF92BF92CF92DF92EF92FF92A6
:102270004B015C0169017A01A1DFDC01CB01881906
:102280009909AA09BB0921E0C816D906EA06FB0686
:1022900008F020E0822FFF90EF90DF90CF90BF906A
:1022A000AF909F908F9008951F920F920FB60F924C
:1022B00011248F939F93AF93BF931092B20080919C
:1022C00060068F5F809360068F31A9F4809161066C
:1022D00090916206A0916306B09164060196A11DDB
:1022E000B11D8093610690936206A0936306B0933C
:1022F000640610926006BF91AF919F918F910F90ED
:102300000FBE0F901F901895F894E1E6F0E080E87A
:10231000808381E0808378940895FC01918180819D
:10232000823091F018F4813031F008958330A9F0B3
:102330008430E1F0089581B1611103C09095982334
:1023400001C0982B91B9089584B1611103C0909593
:10235000982301C0982B94B9089587B1611103C0E7
:102360009095982301C0982B97B908958AB161116F
:1023700003C09095982301C0982B9AB90895FC0149
:1023800020819181828187FF05C081E0613009F45D
:1023900080E0682F2230D9F018F4213031F0089510
:1023A000233039F12430B9F10895613019F482B144
:1023B000982B05C0909582B1611103C0982392B902
:1023C0000895892382B981B1982391B90895613024
:1023D00019F485B1982B05C0909585B1611103C0A2
:1023E000982395B90895892385B984B1982394B920
:1023F0000895613019F488B1982B05C0909588B183
:10240000611103C0982398B90895892388B987B1C9
:10241000982397B90895613019F48BB1982B05C0B2
:1024200090958BB1611103C098239BB908958923BE
:102430008BB98AB198239AB90895CF93DF93EC01B1
:102440008A8183FF02C061E001C060E0CE0165DFE8
:102450008A8185FD04C086FF04C061E003C060E09E
:1024600001C062E0CE018BDFDF91CF9108958091B2
:102470003E0190913F01E1DF80913C0190913D014F
:10248000DCDF80913A0190913B01D7DF80913801E8
:1024900090913901D2DF8091360190913701CDDFE3
:1024A0008091340190913501C8DF80913201909183
:1024B0003301C3DF8091300190913101BEDF809103
:1024C0002E0190912F01B9DF80912C0190912D0167
:1024D000B4DF80912A0190912B01AFDF8091280118
:1024E00090912901AADF8091260190912701A5DF13
:1024F0008091240190912501A0DF8091220190918B
:1025000023019BDF809120019091210196DF809132
:102510001E0190911F0191DF80911C0190911D017E
:102520008CDF80911A0190911B0187DF8091180147
:102530009091190182DF80911601909117017DDF42
:10254000809114019091150178DF80911201909192
:10255000130173DF80911001909111016EDF809162
:102560000E0190910F0169DF80910C0190910D0196
:1025700064DF80910A0190910B015FDF8091080177
:10258000909109015ADF809106019091070155DF72
:10259000809104019091050150DF8091020190919A
:1025A00003014BDF809100019091010146CFFC01B6
:1025B00091818081823069F018F4813031F0089582
:1025C000833059F0843069F0089582B1982792B928
:1025D000089585B1982795B9089588B1982798B935
:1025E00008958BB198279BB90895FC0121819081B2
:1025F000923059F020F4913071F480B109C09330D9
:1026000031F0943041F489B103C083B101C086B187
:10261000282381E009F480E0928197FF02C091E0D5
:1026200089270895E82FF0E0E657F74F81E080838F
:102630000895E82FF0E0E657F74F908181E091117F
:1026400001C080E00895E82FF0E0E657F74F1082D0
:1026500008958DE992E00C9488018DE992E00C9444
:1026600017028DE992E00C94AD028DE992E00C9492
:102670009101AB01BC018DE992E00C94F0018DE970
:1026800092E00C9407028DE992E00C940C028DE923
:1026900092E00C9423028DE992E00C94A80282E966
:1026A00092E00C94880182E992E00C94170282E98E
:1026B00092E00C94AD0282E992E00C949101682FB3
:1026C00082E992E00C949C0182E992E00C9407026A
:1026D00082E992E00C940C02AB01BC0182E992E029
:1026E0000C94860282E992E00C94A802D8DFB1CF64
:1026F000CF93DF93EC018881882349F083E092DF58
:102700000E94EF000E940D011092690615C0109200
:10271000BC0010926A0683E096DF0E94F9000E94D6
:1027200017018D81982F990F809169068170892BEF
:102730008093690681E08A839C8180916906992350
:1027400011F0816001C08E7F809369069A8180912B
:102750006A06992311F0806401C08F7B80936A061A
:102760009B8180916A06992311F0816001C08E7F60
:1027700080936A0610926806809169068093BA0079
:10278000809168068093B80080916A068460809387
:10279000BC008091670683608093670689E380931D
:1027A0006806DF91CF9108950E9403010E942101E4
:1027B000ECEBF0E08081806880838081847080838E
:1027C000089571CF08950F931F93CF93DF93D82F60
:1027D0008B0169DFC82FD81708F4CD2F79DFB80136
:1027E0008C2F90E079DF7EDF8C2FDF91CF911F91CE
:1027F0000F9108950F931F93CF938B01C82F8138AA
:1028000008F0C0E832DFB8018C2F90E032DF37DF0C
:102810008C2FCF911F910F91089582E00ADF8111D3
:1028200004C081E006DF91E0811190E0892F0895D6
:10283000F4CF0895809365063EDF81E0F3DE83E008
:10284000F8DE882351F080916606816080936606E9
:1028500080916A06846A8093BC0008950F931F9349
:10286000CF93C82F8B018DE696E00E943A0381E05A
:10287000E0DE882351F0B8018DE696E00E949603D1
:10288000811103C010DF8C1790F3CF911F910F912E
:10289000089583E0CEDE81E0D6DE16CF8091660615
:1028A0008E7F8093660682E0BDDEEDDE83E0C1DED2
:1028B000882329F080916A06846A8093BC00089579
:1028C000089583E0B6DEE7DE82E0BDCEF0CE089567
:1028D000C8CE0895880F8093660608958BE696E02B
:1028E0000E948001811104C08BE696E00C94620185
:1028F00080E00895682F8BE696E00C9471011F929A
:102900000F920FB60F9211240BB60F922F933F9395
:102910004F935F936F937F938F939F93AF93BF93E7
:10292000EF93FF938091B900887F803509F460C0F0
:1029300010F5803209F48FC068F4883009F440C083
:1029400020F4882309F477C0B8C08031C9F18831F8
:10295000F1F1B3C0883309F46EC030F48832B9F1B4
:10296000803309F478C0A9C0803409F45BC088348E
:1029700009F471C0A2C0883809F47EC078F48036AA
:1029800009F472C020F4883509F457C096C0803726
:1029900009F48DC0803809F46FC08FC0883B09F4FA
:1029A00071C038F4803A09F46BC0883A09F46AC0FF
:1029B00084C0803C09F47BC0883C09F478C07DC0A9
:1029C000809166068093BB0080916A066EC045DEEA
:1029D000882321F05CDE8093BB0064C080916A068E
:1029E000817084698093BC0082E02DDE54DE65C076
:1029F00081E01FDE882319F08091BB0060DE8091AA
:102A00006506882319F081508093650690916506CC
:102A100080916A06817091114DC084688093BC00DA
:102A200081E020C09091650680916A0681709130A6
:102A300009F040C03AC080E93EC081E0FADD882359
:102A400051F08091BB003BDE809165068150809300
:102A5000650681E0F8DD80916A0681708469809363
:102A6000BC0082E0F0DD29C080916A068170846C30
:102A70008093BC0020DE21C08091BB0020DE17C007
:102A800023DE15C082E0D5DD811103C01092BB00AA
:102A900009C0FDDD8093BB00E0DD811108C0FBDDD6
:102AA00082E0D1DD80916A068170846804C08091E3
:102AB0006A068170846C8093BC00FF91EF91BF9196
:102AC000AF919F918F917F916F915F914F913F91C6
:102AD0002F910F900BBE0F900FBE0F901F90189567
:102AE0000895CF93DF93EC0188EA92E00E94880179
:102AF00083EB92E00E9488011092C4001092C500FE
:102B00001092C2001092C1008881823061F018F4E6
:102B1000813039F004C0833049F0843031F08FE2E5
:102B200005C087E103C08BE001C081E08093C40051
:102B30001092C5008981823079F018F4813049F013
:102B400004C0833069F0843079F08091C2008660DF
:102B50000EC08091C2000BC08091C200826007C08D
:102B60008091C200846003C08091C2008E60809317
:102B7000C2008A81813019F08091C20003C0809127
:102B8000C20088608093C2008B81813029F082303E
:102B900039F08091C20007C08091C200806203C0FA
:102BA0008091C20080638093C2008091C1008860E0
:102BB0008093C1008091C10080618093C100DF914A
:102BC000CF91089588EA92E00E94AD0283EB92E0F3
:102BD0000C94AD0288EA92E00C9417020F931F93B5
:102BE000CF93DF93D82F8B0188EA92E00E941702DF
:102BF000C82FD81708F4CD2F88EA92E00E940C0263
:102C00006C2F70E0A80188EA92E00E94860288EAB0
:102C100092E00E94A8028C2FDF91CF911F910F911B
:102C200008950F931F93CF938B01C82F813808F01D
:102C3000C0E883EB92E00E9491016C2F70E0A80144
:102C400083EB92E00E94F00183EB92E00E94070286
:102C50008C2FCF911F910F91089581E0089590934B
:102C600071078093700788EA92E00E94910181E0E9
:102C700080938D080895089510928D0888EA92E057
:102C80000C94070290918E0881E0911180E00895E4
:102C900081E080938E0883EB92E00E940C0283EB2C
:102CA00092E00E941702882359F08091C00085FFAE
:102CB000FCCF83EB92E00E9423028093C600EFCF0B
:102CC00083EB92E00C94A802089583EB92E00E94BB
:102CD000A80210928E08089588EA92E00C94AD0242
:102CE00083EB92E00C94AD02089581E0089508957D
:102CF0001F920F920FB60F9211240BB60F922F93C3
:102D00003F934F935F936F937F938F939F93AF9373
:102D1000BF93EF93FF9383EB92E00E941702882307
:102D200039F083EB92E00E9423028093C60001C039
:102D3000CCDFFF91EF91BF91AF919F918F917F91E8
:102D40006F915F914F913F912F910F900BBE0F901C
:102D50000FBE0F901F9018951F920F920FB60F92F3
:102D600011240BB60F922F933F934F935F936F9362
:102D70007F938F939F93AF93BF93EF93FF93809134
:102D8000700790917107892BC1F06091C60088EAA5
:102D900092E00E949C0180917007909171078F3F93
:102DA0002FEF920751F09C012150310930937107A8
:102DB00020937007892B09F45FDFFF91EF91BF919A
:102DC000AF919F918F917F916F915F914F913F91C3
:102DD0002F910F900BBE0F900FBE0F901F90189564
:102DE00016BC8091740880936E008091750887BD31
:102DF00018BC8091770884BD8091760885BD0895C0
:102E000015BC14BC17BC18BC16BC0895F9CF0895A6
:102E1000CF93DF93EC01F4DF8A81833061F018F403
:102E2000823039F004C0843041F0853041F086E6CC
:102E300007C080E605C08EE503C08AE501C088E5CD
:102E400080937508809174088260809374088D81E6
:102E5000813039F083E48093770880917608886028
:102E600003C092E4909377088093760888819981D3
:102E7000009729F0909373088093720804C0109211
:102E8000730810927208DF91CF9108951F920F92EC
:102E90000FB60F9211240BB60F922F933F934F93BF
:102EA0005F936F937F938F939F93AF93BF93EF93B2
:102EB000FF93E0917208F0917308309709F009953B
:102EC000FF91EF91BF91AF919F918F917F916F9102
:102ED0005F914F913F912F910F900BBE0F900FBEBE
:102EE0000F901F9018951F920F920FB60F921124FA
:102EF0000F900FBE0F901F9018951F920F920FB654
:102F00000F9211240F900FBE0F901F9018951092E2
:102F100081000895DC0110928100109289081092BE
:102F200088081092870810928608109285081092DF
:102F30008408109283081092820815968C91159738
:102F4000811180C012961C92129781E080938808AC
:102F50001396EC9113974E2F50E04730510520F413
:102F6000FA01E357FF4F96C185E08093880888E017
:102F700097E0909386088093850840E950ED63E0E0
:102F800070E04FC083E08093880883E790E09093DF
:102F900086088093850848EE53E060E070E041C009
:102FA0008BED90E1909386088093850848E552E088
:102FB00060E070E036C080E490E1909386088093F2
:102FC000850840E352E060E070E02BC08CE19FE0B8
:102FD00090938608809385084FE052E060E070E0AF
:102FE00020C089E392E0909386088093850840E5AD
:102FF00050E060E070E015C08DE191E090938608AC
:103000008093850848E250E060E070E00AC087E401
:1030100090E090938608809385084AE050E060E055
:1030200070E040937A0850937B0860937C0870931B
:103030007D088091880888608093880882E2809368
:10304000820823C0813009F583E48093890889E0F0
:103050008093880812968C911297833069F028F437
:10306000813099F486E690E00CC0843041F08530E0
:1030700061F488E590E005C081E690E002C08BE550
:1030800090E090938608809385088D919C9100979D
:1030900029F0909379088093780808951092790820
:1030A00010927808089560937E0870937F0880934B
:1030B000800890938108109284001092850080917E
:1030C000820880936F0080918608809389008091A8
:1030D0008508809388008091840880938B0080917C
:1030E000830880938A008091890880938000809172
:1030F00088088093810080918708809382000895DA
:103100001092810008951F920F920FB60F92112412
:103110000BB60F922F933F934F935F936F937F93D1
:103120008F939F93AF93BF93EF93FF9380917E080C
:1031300090917F08A0918008B09181088F3F2FEF78
:103140009207A207B20771F140917A0850917B086B
:1031500060917C0870917D08481759076A077B07C2
:1031600068F4841B950BA60BB70B80937E08909395
:103170007F08A0938008B093810808C010927E0851
:1031800010927F08109280081092810880917E082A
:1031900090917F08A0918008B0918108892B8A2B9B
:1031A0008B2B39F4E0917808F0917908309709F089
:1031B0000995FF91EF91BF91AF919F918F917F9171
:1031C0006F915F914F913F912F910F900BBE0F9098
:1031D0000FBE0F901F9018951F920F920FB60F926F
:1031E00011240F900FBE0F901F9018951F920F92F1
:1031F0000FB60F9211240F900FBE0F901F901895CD
:1032000008950C94650D089508958091910390910F
:1032100092030C94B00C0E94720E0C94C80E0E9483
:10322000D30380EF92E00E94DC030E941A068EEB2B
:1032300092E00E94DC0387ED92E00C94DC03CF93D4
:10324000DF9315D961D80E94AF10C9E6D3E0ECA195
:10325000FDA10180F281E02D0995E8A5F9A5018085
:10326000F281E02D0995DF91CF910895089599E2BB
:1032700088E10FB6F894A895809360000FBE9093F4
:103280006000A895DCDFF2DFBBDFBBDFBDDFC7DF9F
:10329000BCDFC1CFEE0FFF1F0024001C0BBE079048
:1032A000F691E02D09942F923F924F925F926F9288
:1032B0007F928F929F92AF92BF92CF92DF92EF92C6
:1032C000FF920F931F93CF93DF93CDB7DEB7CA1B47
:1032D000DB0B0FB6F894DEBF0FBECDBF09942A8872
:1032E000398848885F846E847D848C849B84AA841A
:1032F000B984C884DF80EE80FD800C811B81AA81A7
:10330000B981CE0FD11D0FB6F894DEBF0FBECDBF71
:08331000ED010895F894FFCFD0
:1033180009030C030F031203150318031B031E03F1
:103328002103240327032A032D0330033303360321
:1033380039033C033F034203450348034B034E0351
:103348005103540357035A035D0360036303660381
:103358000276137813D413E113E313FA131A142E15
:1033680014491418140D144E14601461146614686A
:10337800146A146E147A14012A0309032B03210317
:103388001A0318030A031C0328031F031D03290338
:103398000B03260327030C03230324030D030170E7
:1033A800157115E215EA15EE1511162F163B163C88
:1033B8001642162D164816641665166C1670167485
:1033C8001675167716002A0309032B0321031A031F
:1033D80018030A031C0328031F031D0329030B03F7
:1033E800260327030C03230324030D0301FFFFFF18
:1033F800FF000000000048053A0535058A0530053C
:103408000000000000000000000087178A1753180A
:10341800801806170817F016001700000000003E75
:103428000A3F0A490A050B000000000000000000DE
:1034380000000000000000009C0A3A022E02650A03
:10344800690A6E0A730A790A7F0A830A610A870A77
:103458008B0A8F0A930A990AFF08060000000000E9
:1034680000200000280600000000000020000000E6
:1034780000000000710EFC0DFF0D1E0E700E000006
:103488000000000000000000C80E8F0E990E940E78
:103498009E0EA70ED00E8C02B10E000001D20E0BAC
:1034A800F70E7006000000000000800000F0060023
:1034B800000000000080000072070000000000000B
:1034C800800000F2070000000000008000000000FB
:1034D800000000970498049B04A604FF040005015B
:1034E800050205030500000000000000F10CF20CC5
:1034F800F50CFA0C640D000000000000000000004C
:103508000000000000D60DDA0DDD0DE60DFB0D0004
:103518000000000000000000000480400440400457
:103528002040041040040840040440040240040100
:1035380040038040034040032040031040030840FC
:1035480003044003021003011002804002404002BD
:10355800204002104802084802044002020002010A
:1035680040018040014040012040011040010840D6
:103578000104C80102C80101C803110611DE1009BF
:10358800111C11301104052E050E03100313031727
:10359800031D128D11BF11D712F512B5018E0167E7
:0A35A80001400100000101011100C3
:00000001FF
