:1000000045C0000061C000005FC000005DC000008E
:100010005BC0000059C0000057C0000055C0000080
:1000200053C000000C946F1B4FC000004DC0000077
:100030004BC0000049C0000047C0000045C00000A0
:1000400043C0000041C000003FC000000C940E21DE
:100050000C94992239C000000C94652235C0000030
:1000600033C0000031C000000C94981E2DC0000069
:100070000C94182429C000000C94E42325C000002F
:1000800023C0000021C000001FC0000011241FBEBB
:10009000CFEFD0E4DEBFCDBF15E0A0E0B1E0E0EFF0
:1000A000FAE400E00BBF02C007900D92AE36B10734
:1000B000D9F72CE0AEE6B5E001C01D92A83EB2072C
:1000C000E1F708D00C9467259BCFF8940E94052592
:1000D00078940895FADF9AD5E6D5A895FCCF61E02B
:1000E0008FEB94E00E94A61B61E08FEB94E00C94F0
:1000F000D81B61E08FEB94E00E94A61B60E08FEBC1
:1001000094E00C94D81B61E08CEB94E00E94A61B59
:1001100061E08CEB94E00C94D81B61E08CEB94E0F4
:100120000E94A61B60E08CEB94E00C94D81B61E06D
:1001300087EA94E00E94A61B61E087EA94E00C94B1
:10014000D81B60E087EA94E00E94A61B61E087EA82
:1001500094E00C94D81B87EA94E00E94091D982F24
:1001600081E0911180E0089560E084EA94E00E94CB
:10017000A61B62E084EA94E00C94D81BF5CF0895A6
:1001800061E081EA94E00E94A61B60E081EA94E0CD
:100190000C94D81B60E081EA94E00E94A61B62E008
:1001A00081EA94E00C94D81BF5CF089560E08EE9C5
:1001B00094E00E94A61B61E08EE994E00C94D81BA9
:1001C00061E08BE994E00E94A61B61E08BE994E07A
:1001D0000C94D81B60E08BE994E00E94A61B62E0BF
:1001E0008BE994E00C94D81B60E08BE994E00E94CA
:1001F000A61B61E08BE994E00C94D81BEBCF08952B
:1002000061E088E994E00E94A61B61E088E994E03F
:100210000C94D81B60E088E994E00E94A61B62E081
:1002200088E994E00C94D81B60E088E994E00E948F
:10023000A61B61E088E994E00C94D81BEBCF0895ED
:1002400061E08EE694E00E94A61B60E08EE694E0FA
:100250000C94D81B60E08EE694E00E94A61B61E03F
:100260008EE694E00C94D81B8EE694E00E94091D63
:10027000982F81E0913009F080E008958EE694E0B7
:100280000E94091D982F81E0911180E00895FC01E2
:1002900080819181862B972B918380830895FC0127
:1002A000808191816823792381E090E0672B11F4AC
:1002B00090E080E00895FC01CB01809590956081ED
:1002C000718168237923718360830895FC01118211
:1002D00010820895FC018181811109C08081811102
:1002E00002C081E0808381E081838081089580E085
:1002F0000895FC018181882341F08081861305C027
:100300008E3F21F481E08083118208958F5FFBCFBF
:10031000FC0181E09181911101C080E00895FC0110
:10032000138281E084830895FC0193818281981374
:1003300002C01382148220813181838191E0980F61
:100340009383F901E80FF11D60830895A4E0B0E004
:10035000ECEAF1E00C944025FC0184818823B1F0A3
:10036000238190E080E070E060E0821788F030E068
:1003700050E040E0CB01770FAA0BBB0BBC01CD01D5
:100380008ED2862F2496E2E00C945C252281E9CF60
:10039000A081B181A80FB91F3C91630F711D37FD7A
:1003A0007A950196E2CFFC018481882339F093810C
:1003B00030E020E080E0291718F008959281F8CF0E
:1003C000A081B181A20FB31F4C9184170CF4842F2C
:1003D0002F5F3F4FF0CFFC018481882339F0938158
:1003E00030E020E08FE7291718F008959281F8CFC8
:1003F000A081B181A20FB31F4C9148170CF4842F38
:100400002F5F3F4FF0CFFC01138281E0848308957A
:10041000FC0193818281981302C01382148220818F
:100420003181838191E0980F9383F901E80FF11DE9
:1004300060830895A4E0B0E0E0E2F2E00C9440258F
:10044000FC018481882399F0238190E080E070E0B2
:1004500060E0821770F030E050E040E0B0E0A0E0F3
:10046000CD01E2D1862F2496E2E00C945C25228116
:10047000ECCFA081B181A80FB91F3C91630F711D12
:100480000196E7CFFC018481882339F0938130E025
:1004900020E080E0291718F008959281F8CFA0811C
:1004A000B181A20FB31F4C91841708F4842F2F5FE2
:1004B0003F4FF0CFFC018481882339F0938130E0F5
:1004C00020E08FEF291718F008959281F8CFA081CE
:1004D000B181A20FB31F4C91481708F4842F2F5FEE
:1004E0003F4FF0CFFC0112861382128215821482D4
:1004F000178216820895FC019285892F827091FFE0
:1005000004C082858260828781E00895FC01828533
:10051000268137818085918528173907D1F084811C
:100520009581A081B181A80FB91F6C9384819581B9
:10053000019695838483868197810196978386832C
:1005400024813581808591852817390711F415821A
:10055000148208951F93CF93DF93D82FC92F172F9D
:10056000D5DF612F8D2F9C2FD1DFDF91CF911F9190
:100570000895CF92DF92EF92FF92CF93DF93D82F1F
:10058000C92F6A017B01642FC1DF99278F2D7E2D32
:100590006D2D8D2F9C2FBADFB701882799278D2FBE
:1005A0009C2FB4DF6F2D7727882799278D2F9C2FBD
:1005B000ADDFDF91CF91FF90EF90DF90CF90089566
:1005C000EF92FF920F931F93CF93DF93F82EE92EB4
:1005D000EA018B01040F151FC017D10729F4CDB70D
:1005E000DEB7E6E00C94582569918F2D9E2D8EDFA5
:1005F000F3CFFC0182858D7F82870895FC0192856F
:10060000892F817090FF03C0928591609287089531
:10061000FC01868197810895FC01268137818085C0
:100620009185821B930B0895FC01828586819781B9
:10063000892BE9F082819381A081B181A80FB91F34
:100640008C91228133812F5F3F4F33832283268118
:100650003781215031093783268342815381208598
:1006600031854217530721F413821282089580E0E6
:1006700008950F931F93CF93DF93D82FC92FD4DF03
:10068000082F10E08D2F9C2FCFDF9801382BC90148
:10069000DF91CF911F910F9108958F929F92AF920A
:1006A000BF92CF92DF92EF92FF921F93CF93DF938F
:1006B00000D000D00F92CDB7DEB78D839983B4DF21
:1006C000882E912CB12CA12C8D819981ADDF182F12
:1006D0008D819981A9DF90E0B0E0A0E07C01DD246C
:1006E000CC24D12AC828D928EA28FB288D819981D1
:1006F0009BDFA7019601582BCA01B9010F900F90FB
:100700000F900F900F90DF91CF911F91FF90EF907E
:10071000DF90CF90BF90AF909F908F900895B0E002
:10072000A0E0E5E9F3E00C943A257C016B018A0135
:10073000D0E0C0E0CC15DD0531F4CE01CDB7DEB799
:10074000E8E00C945625F70186819781892BA9F35F
:10075000C7016ADFF80181938F012196EBCFFC017D
:1007600082858E7F82870895FC0113821282158212
:100770001482178216820895FC0185E090E093832D
:100780008283118210820895EF92FF920F931F933C
:10079000CF93DF93EC01F62EE72E6A817B81611502
:1007A000710549F480916E05882359F0CDB7DEB705
:1007B000E6E00C9458258881998141D18111F2CFCE
:1007C000F5CF81E080936E050C811D810115110527
:1007D00031F411D19983888310926E05E7CFD80147
:1007E000ED91FC91309719F08F2D9E2D0995F80110
:1007F00002811381EBCFCF93DF93EC01FB01AC813E
:10080000BD81109729F47D836C83DF91CF9108958A
:10081000ED0112960D90BC91A02D1097C9F7FB83A6
:10082000EA8313821282F1CFCF92DF92EF92FF928E
:10083000CF93DF9300D000D0CDB7DEB76B017C0142
:10084000C901DA0119821A821B821C820097A10554
:10085000B10529F0C816D906EA06FB0678F46981C5
:100860007A818B819C810F900F900F900F90DF9178
:10087000CF91FF90EF90DF90CF90089529813A813A
:100880004B815C812F5F3F4F4F4F5F4F29833A83EE
:100890004B835C83C81AD90AEA0AFB0ADBCFA4E0BF
:1008A000B0E0E5E5F4E00C943A256B017C01C90168
:1008B000DA01A901BD01770F440B542FBA01417031
:1008C00097018601330F000B102F9801002309F4C4
:1008D00053C0F094E094D094C094C11CD11CE11C8E
:1008E000F11C442309F1002711279801081B190B5B
:1008F0002A0B3B0B40E050E0BA010097A105B1057F
:1009000029F0C016D106E206F30628F449835A837B
:100910006B837C8320C04F5F5F4F6F4F7F4FC80E4C
:10092000D91EEA1EFB1EEDCF40E050E0BA01009751
:10093000A105B10529F0C816D906EA06FB0698F408
:1009400088279927DC01841B950BA60BB70B89839D
:100950009A83AB83BC8369817A818B819C81249645
:10096000E8E00C9456254F5F5F4F6F4F7F4FC81ADA
:10097000D90AEA0AFB0ADFCF4423E1F00027112756
:100980009801081B190B2A0B3B0B40E050E0BA0101
:100990000097A105B105A1F2C016D106E206F30643
:1009A00078F24F5F5F4F6F4F7F4FC80ED91EEA1E20
:1009B000FB1EF2CF40E050E0BA010097A105B1055F
:1009C00009F4A4CFC816D906EA06FB0608F49ECFA0
:1009D0004F5F5F4F6F4F7F4FC81AD90AEA0AFB0A71
:1009E000F1CF80E0089590E080E0089560E070E04D
:1009F000CB01089508950C94191B0895CF93DF93AC
:100A0000EC010E94191B9A83898381E08883DF911E
:100A1000CF910895CF93DF93EC010E94E61A69838A
:100A20007A838B839C8381E08883DF91CF910895C3
:100A3000FC0181E09081913009F080E008950F93EE
:100A40001F93CF93DF938C01EB010E94191B9C0134
:100A5000201B310B81E02C173D0708F480E0DF916B
:100A6000CF911F910F910895CF93DF93EC0188816F
:100A7000813049F40E94191B29813A81821B930B12
:100A8000DF91CF91089590E080E0FACFCF93DF938C
:100A9000EB01EADF9C0181E02C173D0708F480E0C0
:100AA000DF91CF910895A6E0B0E0E9E5F5E00C9480
:100AB00040258D839E83ED81FE818081813001F50B
:100AC0000E94E61A69837A838B839C83ED81FE8181
:100AD00081819281A381B48129813A814B815C819A
:100AE000281B390B4A0B5B0B29833A834B835C83AE
:100AF00069817A818B819C812696E2E00C945C2549
:100B000019821A821B821C82F3CFCF92DF92EF925E
:100B1000FF92CF93DF9300D000D0CDB7DEB76A014C
:100B20007B01C1DF69837A838B839C8381E0298188
:100B30003A814B815C812C153D054E055F0508F41B
:100B400080E00F900F900F900F90DF91CF91FF906A
:100B5000EF90DF90CF90089510927205109271057A
:100B60001092700510926F050895CF93DF93EC01FA
:100B7000188E1F8A8091DC0188838F5F8093DC014F
:100B8000ED81FE810995E091D004F091D1040995A1
:100B90009C838B83EF81F88509959A838983EF8104
:100BA000F8850995B0E0A0E04091DD015091DE01AB
:100BB0006091DF017091E00184179507A607B707E0
:100BC00068F4EF81F8850995B0E0A0E08093DD013D
:100BD0009093DE01A093DF01B093E0018091710555
:100BE00090917205892B59F4D0937205C0937105C9
:100BF000D0937005C0936F05DF91CF910895E09178
:100C00006F05F0917005D08FC78BF2CFB0E0A0E0F8
:100C1000ECE0F6E00C943925C0917105D091720595
:100C2000BB24B394E090D604F090D704C090D004D5
:100C3000D090D104209739F4B11049D0CDB7DEB7A8
:100C4000E9E00C945525EF81F8850995892BA1F4ED
:100C5000EF81F8850995892BD9F4E985FA850995FD
:100C6000882391F0EB85FC850995E985FA8509953E
:100C7000882351F0B12C08C069817A818B819C81D5
:100C8000F70109958111E4CF0F88D88DC02DD2CFFF
:100C9000F60109958C01EF81F88509959A8389837E
:100CA0000B831C83DACFCF93DF93C0917105D09172
:100CB0007205209719F4DF91CF910895ED85FE8597
:100CC000309709F009950F88D88DC02DF2CF83B7E2
:100CD000817F866083BFF89483B7816083BF85B7C7
:100CE000806685BF8F7D85BF78948895F89483B79B
:100CF0008E7F83BF78940895089585E090E00895ED
:100D0000809178059091AB05892B09F082E00895D8
:100D1000A6E0B0E0EEE8F6E00C943E258091AB054D
:100D2000823099F008F055C0811108C08091780593
:100D3000882309F44AC081E08093AB05D0D983E7CA
:100D400095E068DE82E08093AB0589E795E09E83BD
:100D50008D830091D8041091D904AD81BE818C910E
:100D60008823E1F011968D919D910D90BC91A02D5D
:100D700089839A83AB83BC8322E330E040E050E078
:100D8000BC01CD01F8010995882341F0AD81BE81F8
:100D90001C9280917805815080937805ED81FE81C9
:100DA0003596FE83ED83EB5AF540B9F683E08093E8
:100DB000AB0544E650E060E070E083E795E0A5DE37
:100DC00081110DC082E08093AB052696E4E00C947F
:100DD0005A25833071F38DD91092AB05F6CF8091EF
:100DE0007805882311F081E0EECF84E08093AB0595
:100DF000F2CF08950895089508950895CF93DF934D
:100E0000E9E7F5E030E020E0908191111AC095E02B
:100E1000929FE001939FD00D1124C758DA4F888329
:100E2000E091D204F091D304099569837A838B838E
:100E30009C83809178058F5F80937805DF91CF91B7
:100E400008952F5F3F4F35962A303105E9F6F6CFEA
:100E500080E008952091D5053091D605232B21F40B
:100E60008093D5059093D6050895BC0189EC95E053
:100E70008BCC8FEC95E080CCBC018FEC95E084CCE2
:100E8000BC018FEC95E0B7CC89EC95E075CCBC014A
:100E900089EC95E0B0CC8AE297E09093C605809308
:100EA000C50585EC95E0ECCF2DE830E043E850E057
:100EB00065E070E08CEA95E00C9403128CEA95E012
:100EC0000C9449128CEA95E00C941F128CEA95E080
:100ED0000C943512CEDFD8DFDEDFE6DF1092BE05E0
:100EE0001092C0051092BF051092C4051092C30560
:100EF0001092C2051092C1050C94951A90E080E002
:100F000008958091BE05811121C02091C3053091C3
:100F1000C405232BD9F42091D5053091D605211590
:100F20003105A9F03093C4052093C3058CEF94E0FC
:100F30009093C2058093C10585E397E09093C00527
:100F40008093BF051092D6051092D50582E00895D2
:100F5000A0E4B0E0EEEAF7E00C943F25E091BE0596
:100F6000E150E73028F4F0E0E759FA4D0C941825E9
:100F70008091C3059091C405892B09F426C181E0B5
:100F80008093BE059FDF9ADF882309F41EC182E0AB
:100F90008093BE058BEB95E031DD6AEF70E08BEB63
:100FA00095E074DD882321F087E08093BE050DC1B4
:100FB000E091C105F091C20504A0F5A1E02D0995CD
:100FC000882309F402C1E091C305F091C4050780AC
:100FD000F085E02D0280F381E02D0995182FE09136
:100FE000C305F091C4050780F085E02D0190F081E4
:100FF000E02D0995E091C305F091C4050780F085C7
:10100000E02D0284F385E02DBE016F5F7F4F812FBD
:1010100090E00995E091C305F091C4050780F08543
:10102000E02D0484F585E02D0995E091C105F0914E
:10103000C2050280F381E02D0995E091C105F09190
:10104000C205068CF78DE02D0995E091C105F09160
:10105000C2050284F385E02DBE016F5F7F4F812FB3
:101060000995E091C105F091C2050688F789E02D48
:10107000099583E08093BE058BEB95E0BFDC62E3CE
:1010800070E08BEB95E002DD81118ECFE091C10520
:10109000F091C2050288F389E02D0995882309F4AF
:1010A00094C0E091C105F091C205028CF38DE02D52
:1010B000099584E08093BE058BEB95E09FDC88EB7F
:1010C00095E09CDC6AEF70E08BEB95E0DFDC811152
:1010D0006BCF66E470E088EB95E0D8DC882309F4F8
:1010E00074C088EB95E08ADCE091C105F091C205FF
:1010F000048CF58DE02D0995E091C105F091C205B4
:101100000484F585E02D81E090E00995E091C1052A
:10111000F091C2050684F785E02D65E070E081E07E
:101120000995E091C105F091C2050088F189E02D93
:101130000995E091C105F091C2050680F781E02D87
:101140000995882309F441C0E091C105F091C205D9
:101150000084F185E02DBE016F5F7F4F81E009952E
:101160008981882391F1E091C105F091C205048441
:10117000F585E02D90E00995E091C105F091C2055B
:101180000684F785E02D62E370E089810995E0919E
:10119000C105F091C2050088F189E02D099585E02F
:1011A00004CFE091C105F091C2050084F185E02DE6
:1011B000BE016E5F7F4F80E4099581110BC087E00F
:1011C0008093BE0588EB95E019DCC05CDF4FE3E05F
:1011D0000C945B25E091C305F091C4050184F28570
:1011E000E02D0190F081E02D09958981E091C30502
:1011F000F091C4050184F285E02D0084F185E02D95
:10120000BE016E5F7F4F90E00995E091C305F091BC
:10121000C4050184F285E02D0284F385E02D099553
:10122000E091BF05F091C005309729F08091C3058A
:101230009091C405099586E0B8CEE091C305F09180
:10124000C4050580F681E02D84E00995F4CF3EDEEB
:101250001092C4051092C305E091C105F091C2053A
:1012600006A0F7A1E02D09951092C2051092C105C4
:101270001092BE05AACF089585E296E07DCABC0112
:1012800085E296E081CABC0185E296E0B4CA9C0181
:10129000E9EDF5E014821182128291E0938390834C
:1012A00015823093240620932306EBEBFCE011A279
:1012B0008FE782A3E1CF1092E1018EE296E09EDB00
:1012C0001092E201089582E390E008958091E20196
:1012D00081110AC060E67AEE8EE296E0D7DB8823C1
:1012E00019F082E08093E2018091E2010895ADE07F
:1012F000B0E0EDE7F9E00C944025E091E101E83041
:1013000028F4F0E0E059FA4D0C9418251092E10110
:10131000E0912306F091240603A0F4A1E02D0995A5
:101320008093D805882309F473C00E94FB24E091C0
:101330002306F09124060380F481E02D89ED95E0E9
:1013400009958EE296E05ADB81E08093E1010E94EC
:10135000F724882309F45CC0E0912306F091240669
:101360000388F489E02D0995882309F451C069E1C7
:1013700070E08EE296E08ADB882309F449C01F8280
:101380001886E0912306F0912406078CF0A1E02D49
:101390000995E0912306F091240601A0F2A1E02D29
:1013A00088E40995E0912306F09124060384F485EE
:1013B000E02DBE01695F7F4F82E00995E091230631
:1013C000F09124060788F08DE02D099582E0809346
:1013D000E1018BE296E012DBE0912306F091240616
:1013E0000388F489E02D0995811116C06AEF70E039
:1013F0008BE296E04BDB882359F087E08093E10194
:10140000E0912306F0912406038CF48DE02D0995DC
:101410002D96E2E00C945C2581E08F831986E091A3
:10142000D705F0E0E850FB4F80818077836888879C
:10143000E0912306F09124060384F485E02DBE019B
:10144000695F7F4F83E00995E0912306F0912406C0
:1014500001A0F2A1E02D88E40995E0912306F09126
:1014600024060788F08DE02D099584E08093E10142
:10147000E0912306F09124060588F689E02D099570
:10148000882331F2E0912306F091240601A0F2A115
:10149000E02D88E40995E0912306F0912406058467
:1014A000F685E02D82E090E009958BE296E0A6DAE1
:1014B00083E08093E101E0912306F0912406078008
:1014C000F085E02D0995823068F581E08093E20196
:1014D0006AEF70E08BE296E0D9DA882309F498CFBE
:1014E000E0912306F0912406038CF48DE02D0995FC
:1014F000E0912306F0912406058CF68DE02D0995E8
:10150000E0912306F09124060188F289E02D0995E7
:10151000E0912306F0912406078CF0A1E02D0995B7
:1015200087E013C082E08093E201E0912306F0910E
:1015300024060184F285E02DBE016F5F7F4F83E0BA
:101540000995898187FD04C084E08093E10160CF23
:101550001F82E0912306F09124060384F485E02D98
:10156000BE01695F7F4F81E00995E0912306F0910C
:10157000240601A0F2A1E02D88E40995E09123065C
:10158000F09124060788F08DE02D09958BE296E016
:1015900035DA85E08093E101E0912306F09124069D
:1015A0000388F489E02D0995882309F48ECF65E03E
:1015B00070E08BE296E06ADA882309F429CFE091A3
:1015C0002306F091240601A0F2A1E02D88E40995FC
:1015D000E0912306F09124060584F685E02D82E053
:1015E00090E009958BE296E009DA86E08093E101CC
:1015F000E0912306F09124060780F085E02D0995FF
:10160000823008F462CF82E08093E201E091230609
:10161000F09124060184F285E02DBE016F5F7F4FBB
:10162000099529813A813227232732273D872C8744
:101630008091D7058230B1F038F481110EC030931B
:10164000D10C2093D00C02C0833089F08F5F80933F
:10165000D705843088F481E078CF3093D30C209381
:10166000D20CF4CF3093D50C2093D40CEFCF309321
:10167000D70C2093D60CEACFCE010C9600DE109248
:10168000D7051092E1018EE296E0B8D91092E201FE
:10169000E0912306F09124060580F681E02D09955E
:1016A000E0912306F091240605A0F6A1E02D80919B
:1016B000D80509950E94FF24ABCE089508959C019A
:1016C000E3E3F6E014821182128291E09383908327
:1016D000158230937E0620937D06EBEBFCE011A291
:1016E0008FE782A389EE91E00E948F0184EE91E062
:1016F0000C9403021092320689E497E07FD984E4C7
:1017000097E088D9EBEBFCE08FE782A384E686A321
:101710001092E301089582E390E008958091E3013F
:1017200081110AC060E67AEE89E497E0AFD9882398
:1017300019F082E08093E3018091E3010895AFE026
:10174000B0E0E5EAFBE00C943E2580913206833060
:1017500009F4E7C008F096C0813029F1823009F41D
:101760006EC0811110923206E0917D06F0917E06E6
:1017700003A0F4A1E02D099580933106882309F494
:101780007DC00E94FB24E0917D06F0917E060380DF
:10179000F481E02D83E396E0099589E497E02ED962
:1017A00082E0809332060E94F724882309F466C001
:1017B000E0917D06F0917E060388F489E02D09957D
:1017C000882309F45BC00E94F724882309F456C0DB
:1017D00080E38F8381E48887E0917D06F0917E0627
:1017E000058CF68DE02D0995E0917D06F0917E0641
:1017F000078CF0A1E02D0995E0917D06F0917E0621
:1018000001A0F2A1E02D84E40995E0917D06F0911C
:101810007E060384F485E02DBE01695F7F4F82E080
:101820000995E0917D06F0917E060788F08DE02D08
:10183000099589E497E0E2D882E080933206E0914E
:101840007D06F0917E060388F489E02D09958111CB
:101850003BC081E08093E3016AEF70E089E497E0A8
:1018600015D9882359F0E0917D06F0917E06038C0E
:10187000F48DE02D099585E0809332062F96E4E003
:101880000C945A25843009F47DC0853009F06ACF64
:101890001092320689E497E0B1D81092E301E0910A
:1018A0007D06F0917E060580F681E02D0995E09198
:1018B0007D06F0917E0605A0F6A1E02D809131060F
:1018C00009950E94FF24DACF82E08093E30184E24D
:1018D0008F8386E18887E0917D06F0917E0601A0E6
:1018E000F2A1E02D84E40995E0917D06F0917E0659
:1018F0000384F485E02DBE01695F7F4F82E0099586
:10190000E0917D06F0917E060788F08DE02D099527
:101910008FE397E07FD883E08093320681E0809365
:10192000E301E0917D06F0917E060588F689E02DC1
:101930000995882309F490CF40E150E060E070E021
:101940008FE397E0E2D8882309F498CF82E0809370
:10195000E301E0917D06F0917E0601A0F2A1E02D69
:1019600084E40995E0917D06F0917E060584F68574
:10197000E02D86E090E009958FE397E04BD884E076
:1019800080933206E0917D06F0917E060780F08517
:10199000E02D0995863068F581E08093E3014AEFF8
:1019A00050E060E070E08FE397E0AFD8882309F45F
:1019B00065CFE0917D06F0917E06038CF48DE02DDD
:1019C0000995E0917D06F0917E06078CF0A1E02D4F
:1019D0000995E0917D06F0917E060188F289E02D5F
:1019E0000995E0917D06F0917E06058CF68DE02D3F
:1019F00041CF82E08093E301E0917D06F0917E0685
:101A00000184F285E02DBE016F5F7F4F86E009956E
:101A100029813A813227232732273093D90C20930A
:101A2000D80CAFEAB0E00E9421254FEC480F40935C
:101A3000DF0C8091DC0C841714F44093DC0C809153
:101A4000DD0C481714F44093DD0C2C813D813227C6
:101A5000232732273093DB0C2093DA0CA4E6B0E086
:101A60000E9421256C877D878E879F87AA27BB27A9
:101A7000282F8093E30C3091E00C381710F440933A
:101A8000E00C3091E10C231710F48093E10C40EA54
:101A90005BEB6DE070E084E497E037D88111F8CE1D
:101AA00084E497E00E940A056091DF0C89EE91E0E2
:101AB0000E94940189EE91E00E94D3018093DC0C96
:101AC00089EE91E00E94EB018093DD0C89EE91E0BC
:101AD0000E94A6018093DE0C6091E30C84EE91E0FD
:101AE0000E94080284EE91E00E9442028093E00C82
:101AF00084EE91E00E945A028093E10C84EE91E022
:101B00000E941A028093E20CC3CE08950895ECE47B
:101B1000F7E09583848373836283089580934C07F1
:101B2000089580914C070895ECE4F7E08091F60465
:101B30009091F704958384838EEE91E09383828362
:101B400081E180830895DC011496ED91FC91159755
:101B50000380F481E02D12968D919C910995089552
:101B60008CE497E0F0CFFCCF0895DC011496ED9162
:101B7000FC910780F085E02D099508958CE497E0AD
:101B8000F4CFFC01862FBA010480F581E02D018499
:101B9000F285E02D09950895AB01682F8CE497E05C
:101BA000F0CFFC01862FBA010480F581E02D03847B
:101BB000F485E02D09950895AB01682F8CE497E03A
:101BC000F0CF0F931F93CF93DF93EC018B01EC8148
:101BD000FD8101A0F2A1E02D88810995EC81FD81B4
:101BE0000584F685E02DC8010995DF91CF911F91FD
:101BF0000F910895BC018CE497E0E3CFFC01862FA0
:101C0000BA010480F581E02D0784F089E02D099563
:101C10000895AB01682F8CE497E0F0CFDC011496B7
:101C2000ED91FC910188F289E02D099508958CE4ED
:101C300097E0F4CFDC011496ED91FC910388F489D0
:101C4000E02D099508958CE497E0F4CFCF93DF93CE
:101C5000EC01EC81FD8101A0F2A1E02D88810995C4
:101C6000EC81FD810788F08DE02D0995DF91CF9102
:101C700008958CE497E0EACFFC01862FBA01048036
:101C8000F581E02D018CF28DE02D09950895AB01D1
:101C9000682F8CE497E0F0CFDC011496ED91FC9175
:101CA000038CF48DE02D099508958CE497E0F4CF32
:101CB000DC011496ED91FC91078CF0A1E02D0995C3
:101CC00008958CE497E0F4CFCF93DF93EC01898102
:101CD00081110BC0EC81FD8103A0F4A1E02D0995D9
:101CE000898381E0DF91CF91089580E0FBCF8CE480
:101CF00097E0EACFCF93DF93EC01EC81FD8105A063
:101D0000F6A1E02D898109951982DF91CF9108957F
:101D10008CE497E0EFCF88ED9EE090935907809395
:101D2000580788E597E0AFCAEBEBFCE011A684E624
:101D300082A783E297E6909357078093560785ED35
:101D400090E0909355078093540786E091E090933C
:101D5000530780935207DFCFA4E0B0E0E2EBFEE050
:101D60000C9440258091560790915707B0E0A0E071
:101D70002091540730915507AC01BD01421B530B14
:101D80006109710949835A836B837C8324E630E0BF
:101D900040E050E069817A818B819C810E9414042B
:101DA00070935307609352072496E2E00C945C25ED
:101DB000A4E0B0E0EEEDFEE00C943C258CE597E06D
:101DC0000E941805811104C08CE597E00E940A0565
:101DD0008091D60C9091D70C2091560730915707DF
:101DE0002817390728F49093570780935607B4DFD4
:101DF0008091D60C9091D70C2091540730915507C3
:101E00008217930728F49093550780935407A4DF13
:101E1000209152073091530750E040E080915607DF
:101E2000909157076091D60C7091D70C861B970B39
:101E30007C0110E000E0C801B7010E941404609327
:101E4000E70C8091E50C681710F46093E50C809125
:101E5000E40C861710F46093E40C40EA5BEB6DE051
:101E600070E08CE597E00E9485058823E1F08CE521
:101E700097E00E940A056091E70C88E392E00E94D7
:101E8000080288E392E00E9442028093E40C88E317
:101E900092E00E945A028093E50C88E392E00E944F
:101EA0001A028093E60C2496E6E00C9458250895D7
:101EB00080917B02811103C085E090E0089590E05D
:101EC00080E0089587E892E00C9408038CE792E0A4
:101ED0000C947B02682F8CE792E00C948602BC0184
:101EE0008CE792E00C94AA02AB01BC018CE792E073
:101EF0000C94B902AB01BC018CE792E00C94E002B7
:101F00008CE792E00C94F90287E892E00C94FE02D0
:101F100087E892E00C94140387E892E00C9439036C
:101F200087E892E00C944D03AB01BC0187E892E096
:101F30000C948F0387E892E00C94AF030E943E015B
:101F400090917B02911105C0882319F082E0809363
:101F50007B0280917B020895CF93C82F61E070E0EF
:101F600087E298E00E944F01892B71F0C0935802DC
:101F700061E070E087E298E00E945B0162E070E05F
:101F800087E298E00E944701CF91089587E892E0A8
:101F90000C94720287E892E00C94B40387E892E014
:101FA0000C947B02AB01BC0187E892E00C94E00248
:101FB00087E892E00C94F9028CE792E00C947202AC
:101FC0008CE792E00C9408038CE792E00C940C03ED
:101FD0008CE792E00C94FE02AB01BC018CE792E02E
:101FE0000C948F038CE792E00C94AF0381E298E0AD
:101FF0000C94BC03BC0181E298E00C94C4038BE117
:1020000098E00C94BC03BC018BE198E00C94C403F1
:1020100085E198E00C94BC03BC0185E198E00C9448
:10202000C4038FE098E00C94BC03BC018FE098E0FF
:102030000C94C403A3E2B0E0E0E2F0E10C943E258E
:102040008091C2078230D9F160F4811119C00E94D9
:102050003E0181110FC010927B02A396E4E00C9424
:102060005A25833009F453C1843009F45DC11092BC
:10207000C207EDCF90E080E0BDDF81E08093C20732
:10208000E0910D08F0910E080380F481E02D83ECBF
:1020900097E00995E0910D08F0910E08058CF68DFA
:1020A000E02D0995E0910D08F0910E080584F68564
:1020B000E02D8FEF9FEF099582E08093C2070E9489
:1020C0003E01811108C08CE298E00E94FE0484E089
:1020D0008093C207C2CF62E070E087E298E00E947E
:1020E0004F01892BB9F162E070E087E298E00E942D
:1020F0005B0166DF8E5F89A3809157028AA380917E
:1021000058028BA3E0910D08F0910E08078CF0A106
:10211000E02D0995E0910D08F0910E080384F485F7
:10212000E02DBE016F5D7F4F83E0099551DF48DFF1
:10213000082F011135C056DF62E070E087E298E0B9
:102140000E945B01E0910D08F0910E080788F08D68
:10215000E02D09951092560289E298E00E94FE0453
:10216000E0910D08F0910E080780F085E02D0995AB
:10217000811136C08091560211E081114DC0E0916D
:102180000D08F0910E0805A0F6A1E02D8091C10781
:102190000995133009F0B5C090E080E03DDF5DCFD8
:1021A00013DF882341F2102F003208F010E20CDF19
:1021B000811710F409DF182FBE016F5F7F4F812F49
:1021C00090E00ADFE0910D08F0910E080384F48599
:1021D000E02DBE016F5F7F4F812F0995011BA9CFB5
:1021E00065E070E089E298E00E944605882311F0DE
:1021F00013E0C5CFE0910D08F0910E080184F2853F
:10220000E02D66E572E081E0099580915602882311
:1022100009F4A6CF8F3F69F189E298E00E94FE049D
:10222000E0910D08F0910E080780F085E02D0995EA
:10223000882311F1E0910D08F0910E080184F285D8
:10224000E02D67E572E081E00995A4DEA7DE89E272
:1022500098E00E94FE04109156021150111115C011
:10226000A7DE61E070E087E298E00E94470112E09B
:1022700086CF1092560274CF6AE070E089E298E04F
:102280000E944605882361F2B3CF62E370E089E2E1
:1022900098E00E9446058111ABCFE0910D08F091C6
:1022A0000E080780F085E02D09958823B9F2E091AA
:1022B0000D08F0910E080780F085E02D099590E259
:1022C000803248F4E0910D08F0910E080780F08507
:1022D000E02D0995982F812F911708F4892FE0910F
:1022E0000D08F0910E080184F285E02DBE016F5FAC
:1022F0007F4F0995181BBE016F5F7F4F90E052DE44
:10230000ADCF123009F0A9CE83E08093C20786E5F5
:1023100092E08BDEE0910D08F0910E08058CF68DB1
:10232000E02D099582E0D4CE0E9434018823D1F3B8
:1023300064EF71E08CE298E00E944605882309F47E
:102340008CCEE0910D08F0910E080188F289E02D05
:102350000995E0910D08F0910E08038CF48DE02DA5
:102360000995E0910D08F0910E080580F681E02DA9
:1023700009951092C20710927B0290E080E043DE44
:102380006CCEBC018FE098E00C94FB03CF93DF93FD
:10239000EC010E94200187E298E00E946601E6E5D8
:1023A000F2E0108214821382F1DD06DE3ADE1EDED8
:1023B00026DE2EDE8AE4E4E2F5E0A3ECB7E001904D
:1023C0000D928A95E1F7D0930E08C0930D08EBA10A
:1023D000FCA109958093C107E0910D08F0910E08CA
:1023E0000380F481E02D83EC97E0099510927B0245
:1023F0001092C2070E942A018DE392E00E94B50567
:10240000DF91CF910895DC01F90112961C92129789
:1024100011967C936E9314961C921E9213971696A7
:102420005C934E93159718963C932E931797199695
:102430008C9119978C7F19968C9309950895CF9359
:10244000DF93EC018A8181110AC0ED81FE8109953B
:102450008985826089870E94FB049C838B838A81A3
:102460008F5F8A83DF91CF910895CF93DF93EC0143
:102470008A81882359F0813031F4EF81F8850995FC
:1024800089858E7F89878A8181508A83DF91CF9168
:102490000895CF93DF93EC01898581FF0CC068819B
:1024A00079818B819C810E944605882331F0898542
:1024B0008C7F8160898789858170DF91CF910895B4
:1024C000DC018091720890917308892BC1F5B0935B
:1024D0007308A0937208B0937108A093700881E00C
:1024E0008C938FEF14968C93149715961C921597D6
:1024F00016961D921D921D921C9219971A961D9266
:102500001D921D921C921D971E961D921D921D924A
:102510001C92519755961C921E92549781E080937D
:102520006F08E091E604F091E70411968D919C917B
:102530000995E0917008F091710880810895E0910B
:102540007008F09171088081B58BA48BB0937108ED
:10255000A09370088F5FC4CFEF92FF920F931F93E9
:10256000E0917208F0917308309711F480E013C085
:102570009081981315C081E0611101C080E08583CE
:102580002287338744875587E686F786008B118B31
:1025900081E080936F081F910F91FF90EF90089555
:1025A0000488F589E02DE0CFA6E0B0E0EAEDF2E1A5
:1025B0000C943E256D837E83009172081091730800
:1025C0000115110581F4ED81FE81118212821382C1
:1025D000148215821682178210861186128613863F
:1025E0001486158640C0F8019081981340C08481FC
:1025F000ED81FE818183F801468557856089718967
:10260000ED81FE814283538364837583F8014285A3
:10261000538564857585ED81FE8146835783608788
:102620007187ED81FE818130C9F6E091D204F0918D
:10263000D304099569837A838B839C83F80186810F
:102640009781A085B18529813A814B815C81281BC6
:10265000390B4A0B5B0BDA01C901ED81FE818287E0
:102660009387A487B5872696E4E00C945A250489BD
:102670001589A6CF089585E090E0089580916F08B0
:10268000811182E00895AF92BF92CF92DF92EF92D4
:10269000FF921F93CF93DF93CDB7DEB72A970FB684
:1026A000F894DEBF0FBECDBF809172089091730881
:1026B0009E838D8310926F08E090D804F090D90427
:1026C000C090EA04D090EB04A090D204B090D30460
:1026D0008D819E81892B81F42A960FB6F894DEBFF6
:1026E0000FBECDBFDF91CF911F91FF90EF90DF9094
:1026F000CF90BF90AF900895AD81BE8114961C918C
:1027000014971130F9F41A962D913D914D915C91E9
:102710001D972115310541055105A1F016968D91A2
:102720009D910D90BC91A02D89839A83AB83BC832E
:10273000BC01CD01F70109958823D9F1AD81BE8196
:1027400015961C92ED81FE8185819481981749F13F
:10275000848361E0813009F060E0AD81BE81119633
:102760008D919C91F6010995AD81BE8114961C91C5
:10277000113011F5F50109956F83788789879A875C
:10278000AD81BE8116966D937D938D939C93199721
:10279000FD0182859385A485B585892B8A2B8B2B9A
:1027A000F9F4ED81FE810488F589E02DFE83ED8347
:1027B0008FCF10936F08C6CFAD81BE8116961D9244
:1027C0001D921D921C921997FD0116861786108A7C
:1027D000118A1A961D921D921D921C921D97E1CF8F
:1027E00010936F08DECF0895CF93DF93FC01C09163
:1027F0007208D0917308DE01209789F41482138245
:102800001282DF91CF91089513968C9113978617BA
:1028100041F054960D90BC91A02D109779F3611161
:10282000F3CFB183A08381E0828384832C893D89A7
:10283000232B11F48383E5CF1382E3CFA6E0B0E02E
:10284000E4E2F4E10C943E25FC016D837E838481F7
:10285000882309F449C000811181F8018081ED814C
:10286000FE818083F8018481ED81FE818183F801FE
:1028700086859785A089B189ED81FE8182839383C6
:10288000A483B583F80182859385A485B585ED8100
:10289000FE8186839783A087B187F801868197811F
:1028A000A085B185892B8A2B8B2B11F1E091D20465
:1028B000F091D304099569837A838B839C83F80113
:1028C00086819781A085B18529813A814B815C8180
:1028D000281B390B4A0B5B0BDA01C901ED81FE8124
:1028E00082879387A487B5872696E4E00C945A25BF
:1028F000ED81FE811286138614861586F5CFCF935F
:10290000DF93FC01A081B181109731F4148213820E
:102910001282DF91CF91089554960D90BC91A02D15
:102920001097A1F3ED0154960D90BC91A02D662354
:1029300019F08B818613F4CFD183C083128281E09A
:102940008483AB2B11F01382E4CF8383E2CF08950D
:10295000FC018091760890917708892BC9F4F09357
:102960007708E0937608F0937508E0937408108A6E
:10297000178681E08083178210861186128614865E
:102980001386168615861482158216828081089514
:10299000A0917408B09175088C915096FC93EE93B9
:1029A0001F97F0937508E09374088F5F8083108AF7
:1029B0001786E1CF1F93CF93DF93EC01E091EE04F4
:1029C000F091EF0489819A810995182F8C8111303B
:1029D000A9F5882339F08D81811123C0DF91CF9132
:1029E0001F9108951C83E091D204F091D3040995BE
:1029F0006F83788789879A871D83E091D004F0914F
:102A0000D10409959C878B871E821E861D86E091C6
:102A1000DA04F091DB0481E009958C818823F1F2DE
:102A2000DACFE091D604F091D70460E375E78B85A7
:102A30009C850995882391F21D82D0CF8823D9F0F7
:102A40008E81811118C081E08E83E091D004F091D5
:102A5000D10409959E878D87E091DA04F091DB041B
:102A600081E009951C821D821C861B861F821886A8
:102A700019861A86B3CF8D859E85009799F3E091CC
:102A8000D604F091D70460E375E70995882351F3E4
:102A90001E821E861D86E6CFA6E0B0E0E2E5F5E1E7
:102AA0000C943E256D837E83009176081091770803
:102AB0000115110551F4ED81FE81118212821382FC
:102AC000148215821682178235C0F80190819813FE
:102AD0003CC08481ED81FE818183F8019581ED8187
:102AE000FE819283F8019681ED81FE819383882394
:102AF00029F1E091D204F091D304099569837A8396
:102B00008B839C83F80187819085A185B28529817B
:102B10003A814B815C81281B390B4A0B5B0BDA0134
:102B2000C901ED81FE8184839583A683B783F80173
:102B3000168215822696E4E00C945A25ED81FE81DA
:102B40001482158216821782F2CF07851089B0CFC2
:102B500088E798E00C94FE0485E090E008956EE12B
:102B600070E088E798E00E944605811182E00895B0
:102B7000CF93DF93C0917608D0917708209739F4EE
:102B800088E798E00E94FE04DF91CF910895CE017E
:102B900011DF0F84D889C02DF1CF0895FC01A091D9
:102BA0007608B0917708109721F41482138212826C
:102BB0000895B183A08381E0828384831F962D9141
:102BC0003C91232B11F01382089583830895A6E08E
:102BD000B0E0EDEEF5E10C943E25FC016D837E83C3
:102BE00084818823B1F100811181F8018081ED8118
:102BF000FE818083F8018481ED81FE818183F8016B
:102C00009581ED81FE819283F8019681ED81FE81AF
:102C10009383882311F1E091D204F091D3040995B4
:102C200069837A838B839C83F80187819085A18552
:102C3000B28529813A814B815C81281B390B4A0B73
:102C40005B0BDA01C901ED81FE8184839583A68344
:102C5000B7832696E4E00C945A25ED81FE81148218
:102C6000158216821782F5CFFC01A081B1811097E1
:102C700021F414821382128208951F960D90BC9144
:102C8000A02D1097B1F3B183A083128281E08483D9
:102C90001F962D913C91232B11F01382089583836D
:102CA0000895089585E090E0089580917F089091BF
:102CB000800890937E0880937D08E0917D08F091D4
:102CC0007E08309711F480E008950084F185E02DAE
:102CD0000995811107C0E0917D08F0917E088289F5
:102CE0009389E7CF82E008951F93CF93DF93E0911C
:102CF0007D08F0917E08309709F442C00284F38584
:102D0000E02D0995D82FC0E013E0E0917D08F09107
:102D10007E080484F585E02D0995C817C8F4A091B4
:102D20007D08B0917E081E96ED91FC911F97C19F82
:102D3000E00DF11D112480818D1326C0C181D28147
:102D40001696ED91FC910995FE0109958F3F61F46E
:102D5000E0917D08F0917E08C089D1890680F781D5
:102D6000E02D0995FE010995E0917D08F0917E081E
:102D70000480F581E02D099510927E0810927D085F
:102D8000DF91CF911F910895CF5FBFCF089582E962
:102D900092E00C94B505FC0180917F089091800829
:102DA000892B59F4F0938008E0937F08F0937C0816
:102DB000E0937B08138A128A0895A0917B08B09152
:102DC0007C085396FC93EE935297F0CF9093820831
:102DD00080938108089590938208809381080895D4
:102DE0008091810890918208089510928208109233
:102DF0008108089581E02091810830918208232B79
:102E000009F480E00895E0918108F09182083097FC
:102E100011F08181089580E00895DC011596ED910F
:102E2000FC9182E0099582E0089586EE96E1909308
:102E300084088093830883E898E0A3CA10928208EC
:102E400010928108F2DF8BEA92E0A5CF8BE0089523
:102E5000CF93DF93EC01E985FA850190F081E02DB5
:102E60000995E985FA850280F381E02D85E00995D1
:102E7000E985FA850280F381E02D88E00995E985EE
:102E8000FA850284F385E02D0995ED81FE8180E0CD
:102E9000099580E0DF91CF910895ADE0B0E0E3E5E2
:102EA000F7E10C943C258C01DC011996ED91FC9125
:102EB0000190F081E02D0995CE0109966FDE8D8598
:102EC000811113C0D8011996ED91FC910284F3850C
:102ED000E02D0995D8011596ED91FC9180E00995BA
:102EE00080E02D96E6E00C945825BE016F5F7F4F81
:102EF000CE0109966CDE81E09A81911101C080E0DB
:102F00009B81911192E0F82EF92A8C81E12C882383
:102F100011F084E0E82ED8011996ED91FC91028021
:102F2000F381E02D89810995D8011996ED91FC91E5
:102F30000280F381E02D8F2D8E290995CE0109960F
:102F400093DEBDCFACE0B0E0E8EAF7E10C943B25BE
:102F50008C01DC011796ED91FC910280F381E02D4C
:102F60000995D80181110AC01596ED91FC9182E076
:102F7000099582E02C96E7E00C9457251796ED9181
:102F8000FC910190F081E02D0995D8011796ED9103
:102F9000FC910480F581E02D0995F82ED801179653
:102FA000ED91FC910484F585E02D0995BE016F5FDC
:102FB0007F4F8F2D71DD91E08A81811101C090E0FA
:102FC0008B81811182E0D92ED82A8C81E12C882333
:102FD00011F084E0E82ED8011996ED91FC91019052
:102FE000F081E02D0995D8011996ED91FC910280B0
:102FF000F381E02D8F2D0995D8011996ED91FC9163
:103000000280F381E02D8D2D8E2909958D819E8181
:10301000AF81B88589879A87AB87BC87D801199615
:10302000ED91FC910680F781E02D69857A858B858D
:103030009C850995D8011996ED91FC910284F38540
:10304000E02D0995D8011596ED91FC9180E0099548
:1030500080E090CFA3E1B0E0E0E3F8E10C943E25FE
:103060008C01DC011996ED91FC910190F081E02D2D
:10307000099562E0CE010F96B7DB8B89811113C0F1
:10308000D8011996ED91FC910284F385E02D099504
:10309000D8011596ED91FC9180E0099580E063964A
:1030A000E4E00C945A25BE016F5F7F4FCE010F966E
:1030B000C5DBD8011996ED91FC910280F381E02DDA
:1030C00089810995D8011996ED91FC910280F381CF
:1030D000E02D8A81099562E0CE010F9610DCCDCFFC
:1030E000A2E1B0E0E6E7F8E10C943D258C01DC01BB
:1030F0001796ED91FC910280F381E02D0995D8019E
:1031000081110AC01596ED91FC9182E0099582E04B
:103110006296E5E00C9459251796ED91FC9101908B
:10312000F081E02D0995D8011796ED91FC9104806E
:10313000F581E02D0995F82ED8011796ED91FC91B7
:103140000484F585E02D0995BE016F5F7F4F8F2DBB
:103150002BDAD8011996ED91FC910190F081E02DC8
:103160000995D8011996ED91FC910280F381E02D2B
:103170008F2D0995D8011996ED91FC910280F3816C
:10318000E02D8A8109958B859C85AD85BE858F87CD
:10319000988BA98BBA8BD8011996ED91FC9106807A
:1031A000F781E02D6F85788989899A8909958B81C6
:1031B0009C81AD81BE818F87988BA98BBA8BD801FA
:1031C0001996ED91FC910680F781E02D6F85788945
:1031D00089899A8909958F819885A985BA858F876C
:1031E000988BA98BBA8BD8011996ED91FC9106802A
:1031F000F781E02D6F85788989899A890995D801A9
:103200001996ED91FC910284F385E02D0995D80182
:103210001596ED91FC9180E0099580E079CFB0E0C2
:10322000A0E0E5E1F9E10C943625EC01EF81F885A9
:103230000280F381E02D0995823058F4ED81FE8102
:1032400081E0099511E0812FCDB7DEB7ECE00C9459
:103250005225EF81F8850280F381E02D09958A30AF
:1032600068F3EF81F8850280F381E02D09958A30BB
:1032700030F410E0ED81FE81812F0995E4CFEF81DC
:10328000F8850480F581E02D0995D82EEF81F88529
:103290000480F581E02D0995C82EEF81F885008422
:1032A000F185E02D09954B015C01EF81F8850084E3
:1032B000F185E02D09957B018C019401A5016C2D10
:1032C0008D2D4AD98111CDCF11E0D4CF0F931F930B
:1032D000CF93DF93EC01E985FA850190F081E02D31
:1032E00009950BEB1CE0E985FA850280F381E02D5E
:1032F000D80194968C910995E985FA850280F3812D
:10330000E02DD80191968C910995E985FA85028086
:10331000F381E02DD80192968C910995E985FA8583
:103320000280F381E02DD80193968C910995E9856F
:10333000FA850284F385E02D0995ED81FE8180E018
:10334000099580E0DF91CF911F910F9108950F9320
:103350001F93CF93DF93EC01E985FA850190F0810B
:10336000E02D09950BEB1CE0E985FA850280F381DD
:10337000E02DD80198968C910995E985FA8502800F
:10338000F381E02DD80195968C910995E985FA8510
:103390000280F381E02DD80196968C910995E985FC
:1033A000FA850280F381E02DD80197968C910995DA
:1033B000E985FA850284F385E02D0995ED81FE818A
:1033C00080E0099580E0DF91CF911F910F910895E2
:1033D0000F931F93CF93DF93EC01E985FA8501905A
:1033E000F081E02D09950BEB1CE0E985FA85028060
:1033F000F381E02DD8019C968C910995E985FA8599
:103400000280F381E02DD80199968C910995E98588
:10341000FA850280F381E02DD8019A968C91099566
:10342000E985FA850280F381E02DD8019B968C9185
:103430000995E985FA850284F385E02D0995ED81EA
:10344000FE8180E0099580E0DF91CF911F910F917F
:1034500008950F931F93CF93DF93EC01E985FA85CD
:103460000190F081E02D09950BEB1CE0E985FA85D0
:103470000480F581E02DD80155968D919C91099598
:10348000E985FA850480F581E02DD80157968D9164
:103490009C910995E985FA850480F581E02DD80194
:1034A00059968D919C910995E985FA850480F5815D
:1034B000E02DD8015B968D919C910995E985FA855F
:1034C0000480F581E02DD8015D968D919C91099540
:1034D000E985FA850480F581E02DD8015F968D910C
:1034E0009C910995E985FA850284F385E02D09957B
:1034F000ED81FE8180E0099580E0DF91CF911F9101
:103500000F910895FC01892B29F00580F681E02DAB
:1035100080E00995089582E89AE190938808809365
:10352000870887E898E00C944707F5CF08951F9324
:10353000CF93DF93EC01EF81F8850480F581E02DD6
:103540000995182FE0911E05F0911F05099581132B
:1035500008C0CE010E943C0785E0DF91CF911F910A
:103560000895ED81FE8186E0099586E0F6CF109200
:103570008C0810928D0810928E0810928F0810926D
:103580008B08109270001092B20080E28093B60017
:103590008091B60080FDFCCF8091B60080FDFCCF0D
:1035A00083E08093B1008091B60081FDFCCF109242
:1035B000B0008091B60083FDFCCF8FE18093B30013
:1035C00087E087BB82E0809370000895A4E0B0E0BC
:1035D000ECEEFAE10C94402580918C0890918D08D6
:1035E000A0918E08B0918F0830918B082091B20085
:1035F00045E0880F991FAA1FBB1F4A95D1F7830F7B
:10360000911DA11DB11D55E0880F991FAA1FBB1F59
:103610005A95D1F7AC01BD01420F511D611D711DBD
:10362000CB01BA012496E2E00C945C25CFDF862F13
:103630000895CCDFCB010895CF93DF93D82FC62F09
:10364000F5DF482F4D1B550B81E0C41715060CF014
:1036500080E0DF91CF9108950F931F93CF93DF9375
:103660008C01EB01E6DF9C01201B310B81E0C217CE
:10367000D30708F080E0DF91CF911F910F9108955B
:103680008F929F92AF92BF92CF92DF92EF92FF9272
:10369000CF93DF9300D000D0CDB7DEB74B015C01F4
:1036A00069017A0193DFAB01BC01481959096A0924
:1036B0007B0981E0C416D506E606F70608F080E02F
:1036C0000F900F900F900F90DF91CF91FF90EF90A0
:1036D000DF90CF90BF90AF909F908F9008951F92F2
:1036E0001FB61F9211248F939F93AF93BF93109295
:1036F000B20080918B088F5F80938B088F31A9F483
:1037000080918C0890918D08A0918E08B0918F08BF
:103710000196A11DB11D80938C0890938D08A093F4
:103720008E08B0938F0810928B08BF91AF919F9134
:103730008F911F901FBE1F901895F894E1E6F0E05E
:1037400080E8808381E0808378940895FC019081F3
:1037500081819330D9F028F4913031F0923069F0C2
:1037600008959430E1F0089591B1611104C08095FD
:10377000892381B90895892BFCCF94B1611104C0CC
:103780008095892384B90895892BFCCF97B1611165
:1037900004C08095892387B90895892BFCCF9AB1FD
:1037A000611104C0809589238AB90895892BFCCFC3
:1037B000FC0190818181228127FF05C021E06130D9
:1037C00009F420E0622F933069F128F4913031F050
:1037D0009230B1F008959430B9F10895613021F438
:1037E00092B1892B82B90895809592B1611102C07E
:1037F0008923F8CF982392B991B1892381B908958B
:10380000613021F495B1892B85B90895809595B1E2
:10381000611102C08923F8CF982395B994B1892307
:1038200084B90895613021F498B1892B88B908953D
:10383000809598B1611102C08923F8CF982398B977
:1038400097B1892387B90895613021F49BB1892B01
:103850008BB9089580959BB1611102C08923F8CF7F
:1038600098239BB99AB189238AB90895CF93DF939E
:10387000EC018A8161E083FF60E0CE0167DF8A812D
:1038800060E085FD03C061E086FF62E0CE0190DF6D
:10389000DF91CF91089580913E0190913F01E6DF45
:1038A00080913C0190913D01E1DF80913A0190913E
:1038B0003B01DCDF8091380190913901D7DF8091A5
:1038C000360190913701D2DF80913401909135011A
:1038D000CDDF8091320190913301C8DF80913001BA
:1038E00090913101C3DF80912E0190912F01BEDFB5
:1038F00080912C0190912D01B9DF80912A01909146
:103900002B01B4DF8091280190912901AFDF8091D4
:10391000260190912701AADF809124019091250131
:10392000A5DF8091220190912301A0DF80912001E9
:10393000909121019BDF80911E0190911F0196DFE4
:1039400080911C0190911D0191DF80911A0190914D
:103950001B018CDF809118019091190187DF809104
:1039600016019091170182DF809114019091150149
:103970007DDF809112019091130178DF8091100119
:103980009091110173DF80910E0190910F016EDF14
:1039900080910C0190910D0169DF80910A01909155
:1039A0000B0164DF80910801909109015FDF809134
:1039B0000601909107015ADF809104019091050161
:1039C00055DF809102019091030150DF8091000149
:1039D000909101014BCFFC0180819181833089F06E
:1039E00028F4813031F0823041F00895843069F05C
:1039F000089582B1982792B9089585B1982795B90D
:103A0000089588B1982798B908958BB198279BB9E4
:103A10000895FC01808191818330B9F030F48130C8
:103A200041F0823081F080E008C08430E1F789B154
:103A300001C080B1982381E0B1F3928197FF02C069
:103A400091E08927089583B1F5CF86B1F3CFE82FB0
:103A5000F0E0EC54F34F81E080830895E82FF0E02C
:103A6000EC54F34F908181E0911101C080E0089502
:103A7000E82FF0E0EC54F34F108208958BEE92E0C3
:103A80000C9472028BEE92E00C9408038BEE92E0A1
:103A90000C94B4038BEE92E00C947B02AB01BC015E
:103AA0008BEE92E00C94E0028BEE92E00C94F90223
:103AB0008BEE92E00C94FE028BEE92E00C941403D9
:103AC0008BEE92E00C94AF0380EE92E00C947202C5
:103AD00080EE92E00C94080380EE92E00C94B40324
:103AE00080EE92E00C947B02682F80EE92E00C94C2
:103AF000860280EE92E00C94F90280EE92E00C9443
:103B0000FE02AB01BC0180EE92E00C948F0380EECC
:103B100092E00C94AF03D8DFB1CFCF93DF93EC01E9
:103B200088818823D9F183E092DF0E94E0000E941F
:103B3000000110929408809194089C81992309F4C3
:103B400042C0816080939408809195089A8199235E
:103B5000E1F1806480939508809195089B81992379
:103B6000B1F1816080939508109293088091940838
:103B70008093BA00809193088093B8008091950853
:103B800084608093BC008091920883608093920847
:103B900089E380939308DF91CF9108951092BC0040
:103BA0001092950883E064DF0E94F4000E941401E3
:103BB0008D81880F909194089170892B809394083F
:103BC00081E08A83B8CF8E7FBDCF8F7BC3CF8E7FBE
:103BD000C9CF0E94FE000E941E01ECEBF0E0808144
:103BE00080688083808184708083089571CF089578
:103BF0000F931F93CF93DF93D82F8B0169DFC82FCB
:103C0000D81708F4CD2F79DFB8018C2F90E079DF39
:103C10007EDF8C2FDF91CF911F910F9108951F931D
:103C2000CF93DF93162FD72FC82F813808F0C0E825
:103C300031DF612F7D2F8C2F90E030DF35DF8C2F2F
:103C4000DF91CF911F91089582E008DF811105C0B7
:103C500081E004DF982F81E0911180E00895F4CF96
:103C60000895809390083CDF81E0F1DE83E0F6DE8A
:103C7000882351F080919108816080939108809110
:103C80009508846A8093BC0008951F93CF93DF93B7
:103C9000C82FD62F172F88E998E00E94FE0481E0F4
:103CA000DDDE882359F06D2F712F88E998E00E949E
:103CB0004605811103C00CDF8C1788F3DF91CF918B
:103CC0001F91089583E0CADE81E0D2DE12CF809199
:103CD00091088E7F8093910882E0B9DEE9DE83E06F
:103CE000BDDE882329F080919508846A8093BC000A
:103CF0000895089583E0B2DEE3DE82E0B9CEECCE33
:103D00000895C4CE0895880F80939108089586E998
:103D100098E00E948801811104C086E998E00C9423
:103D20006A0180E00895682F86E998E00C94790193
:103D30001F920F920FB60F9211240BB60F922F9372
:103D40003F934F935F936F937F938F939F93AF9323
:103D5000BF93EF93FF939091B900892F887F8835A7
:103D600009F4A5C008F055C0803309F4AEC070F561
:103D7000803109F47AC0C0F4882371F1883009F4E5
:103D800074C0FF91EF91BF91AF919F918F917F91FF
:103D90006F915F914F913F912F910F900BBE0F90BC
:103DA0000FBE0F901F901895803209F48EC0883294
:103DB00011F0883131F766DE882309F45EC07CDEBD
:103DC0008093BB0080919508817055C0803409F4C0
:103DD00066C030F48833A9F680E98093BC00D1CF67
:103DE000883409F472C0803561F681E037DE8823BB
:103DF00019F08091BB0078DE909190088091950831
:103E00008170911144C084688093BC0081E030DEF1
:103E1000B8CF883809F461C080F4803711F1803858
:103E200009F45BC0803609F0ACCF809195088170B1
:103E3000846C8093BC0054DEA4CF883B39F068F4D6
:103E4000803A09F44EC0883A09F09BCF82E006DE42
:103E5000811149C01092BB00B5CF907F903C09F012
:103E600090CF80919508817018C0809191088093BF
:103E7000BB00809195088468B0CF809195088170CF
:103E800084698093BC0082E0F3DD1ADE7ACF915022
:103E900090939008992309F4B6CF846C9ECF8091BB
:103EA00095088170909190089130B9F7E4CF81E046
:103EB000D5DD882351F08091BB0016DE80919008FB
:103EC00081508093900881E0D3DD809195088170C6
:103ED00084698093BC0082E09ACF8091BB0004DEAD
:103EE000C0CF07DEBECFE8DD8093BB00CBDD811104
:103EF000B8CFE6DD82E0BCDD65CF81E093E00C94D5
:103F0000720281E093E00C94080381E093E00C944A
:103F1000B40381E093E00C947B02AB01BC0181E02F
:103F200093E00C94E00281E093E00C94F90281E0CC
:103F300093E00C94FE0281E093E00C94140381E082
:103F400093E00C94AF0386EF92E00C94720286EF3C
:103F500092E00C94080386EF92E00C94B40386EF91
:103F600092E00C947B02682F86EF92E00C9486021C
:103F700086EF92E00C94F90286EF92E00C94FE0238
:103F8000AB01BC0186EF92E00C948F0386EF92E0C8
:103F90000C94AF03D8DFB1DF1CBC80E880939C0990
:103FA00080EC8CBD1CBCE4E6F0E080818460808302
:103FB0000895CF93DF93EC01809164008B7F809311
:103FC0006400988180919C099923E1F1806180933C
:103FD0009C090E9497000E94B4000E94D400809126
:103FE0009C099C819923C1F1806280939C098091F6
:103FF0009C099B81992391F1816080939C09809118
:104000009C099D81992361F1806880939C09998125
:1040100080919C09923049F1933051F1913011F126
:10402000837F80939C099A8180919C09933010F53D
:104030008160911122C080919C0980648CBDDF91C8
:10404000CF9108958F7E80939C090E94A1000E94C9
:10405000BE000E94C000C3CF8F7DC7CF8E7FCDCF63
:104060008F77D3CF877F8460DCCF8B7F8860D9CF79
:104070008C60D7CF82609330F1F680939C09DBCFC0
:104080001CBCE4E6F0E08081846080830E94A10093
:104090000E94D6000E94BE000C94D40058CF089510
:1040A0001F93CF93DF93C82F162FD72F65DF612F74
:1040B0007D2F8C2F90E064DFC82F68DF8C2FDF917D
:1040C000CF911F9108951F93CF93DF93162FD72F72
:1040D000C82F813808F0C0E81CDF612F7D2F8C2F9E
:1040E00090E01BDF20DF8C2FDF91CF911F9108958F
:1040F00081E09091A109911180E0089581E0909173
:10410000A009911180E008952ADF81E08093A00941
:1041100008951092A0092CCF12DF1092A1090895E2
:104120001F93CF93DF93C82FD62F172F10DF8C1735
:10413000E8F48DE999E00E94FE04CC23B9F00DB4B7
:1041400007FE0CC08EB50FDFC150DBDE882391F077
:10415000F2DE8EBDD6DE811101C0DEDF6D2F712F44
:104160008DE999E00E944605882339F3DF91CF91CC
:104170001F9108951EBCF2CF81E08093A109D7DE84
:10418000C0DE811102C01EBCC7CFD5DE8EBD089532
:10419000EF92FF920F931F93CF93DF93C82FF62ECA
:1041A000E72EAFDE8C1710F4ACDEC82FCC2341F025
:1041B0000E94FB04182F092FD0E0CD1305C0ACDFFF
:1041C000CDB7DEB7E6E074C46F2D7E2D812F902F22
:1041D0000E9446058111F4CF0DB407FEEECF8EB5D7
:1041E0009091A0099111BFDEA6DE8EBDDF5FE5CF05
:1041F000B2CE08958ACE0895089582EA9AE00E9488
:104200008801811104C082EA9AE00C946A0180E07E
:104210000895682F82EA9AE00C9479011F920F9218
:104220000FB60F9211240BB60F922F933F934F931B
:104230005F936F937F938F939F93AF93BF93CF932E
:10424000EF93FF938CB58F778CBD8DB580939B09D1
:10425000C1E0CC2389F0CEB58091A109882359F122
:104260006ADE8EBD4EDE811101C056DF8091A0094D
:10427000882311F08C2F77DECDB5CC1FCC27CC1F37
:104280000E94AB008111E5CF8CB580688CBDFF9199
:10429000EF91CF91BF91AF919F918F917F916F914E
:1042A0005F914F913F912F910F900BBE0F900FBEDA
:1042B0000F901F9018951EBCD9CF0895CF93DF9310
:1042C000EC018CE093E00E94720287E193E00E948F
:1042D00072021092C4001092C5001092C200109297
:1042E000C1008881833031F098F58130A9F18230A6
:1042F000A9F18FE28093C4001092C50089818330B8
:10430000E1F170F5813091F1823099F18091C20034
:1043100086608093C2008A81813099F18091C200C9
:104320008093C2008B81813081F1823091F1809144
:10433000C2008093C2008091C10088608093C10058
:104340008091C10080618093C100DF91CF91089579
:10435000843079F681E0CECF87E1CCCF8BE0CACF35
:104360008430A1F68091C2008E60D3CF8091C200CC
:10437000D0CF8091C2008260CCCF8091C200846097
:10438000C8CF8091C2008860CBCF8091C20080628C
:10439000D0CF8091C2008063CCCF8CE093E00E94AC
:1043A000B40387E193E00C94B4038CE093E00C94A5
:1043B00008030F931F93CF93DF93D82F8B018CE0CB
:1043C00093E00E940803C82FD81708F4CD2F8CE083
:1043D00093E00E94FE026C2F70E0A8018CE093E055
:1043E0000E948F038CE093E00E94AF038C2FDF913B
:1043F000CF911F910F9108951F93CF93DF93162FA5
:10440000D72FC82F813808F0C0E887E193E00E94D9
:104410007B026C2F70E0412F5D2F87E193E00E94BB
:10442000E00287E193E00E94F9028C2FDF91CF91A7
:104430001F91089581E008959093A50A8093A40A9E
:104440008CE093E00E947B0281E08093B70C08959A
:1044500008951092B70C8CE093E00C94F9029091BF
:10446000B80C81E0911180E0089581E08093B80C50
:1044700087E193E00E94FE0287E193E00E94080337
:10448000811104C087E193E00C94AF038091C000D8
:1044900085FFFCCF87E193E00E9414038093C60060
:1044A000EBCF089587E193E00E94AF031092B80C20
:1044B00008958CE093E00C94B40387E193E00C94AE
:1044C000B403089581E0089508951F920F920FB6E6
:1044D0000F9211240BB60F922F933F934F935F933C
:1044E0006F937F938F939F93AF93BF93EF93FF93BC
:1044F00087E193E00E9408038823C9F087E193E0F5
:104500000E9414038093C600FF91EF91BF91AF9179
:104510009F918F917F916F915F914F913F912F91DB
:104520000F900BBE0F900FBE0F901F901895BADF23
:10453000EBCF1F920F920FB60F9211240BB60F9272
:104540002F933F934F935F936F937F938F939F939B
:10455000AF93BF93EF93FF938091A40A9091A50A24
:10456000892BB9F06091C6008CE093E00E9486022E
:104570008091A40A9091A50A8F3F980751F09C0161
:10458000215031093093A50A2093A40A892B09F4FC
:1045900060DFFF91EF91BF91AF919F918F917F91DC
:1045A0006F915F914F913F912F910F900BBE0F90A4
:1045B0000FBE0F901F9018950895CF93DF93EC01D5
:1045C00082E293E00E9472028DE293E00E94720206
:1045D0001092CC001092CD001092CA001092C90027
:1045E0008881833031F098F58130A9F18230A9F1CA
:1045F0008FE28093CC001092CD0089818330E1F16D
:1046000070F5813091F1823099F18091CA00866015
:104610008093CA008A81813099F18091CA00809389
:10462000CA008B81813081F1823091F18091CA0082
:104630008093CA008091C90088608093C9008091EE
:10464000C90080618093C900DF91CF9108958430C3
:1046500079F681E0CECF87E1CCCF8BE0CACF843032
:10466000A1F68091CA008E60D3CF8091CA00D0CFCE
:104670008091CA008260CCCF8091CA008460C8CF8C
:104680008091CA008860CBCF8091CA008062D0CF71
:104690008091CA008063CCCF82E293E00E94B40391
:1046A0008DE293E00C94B40382E293E00C9408034F
:1046B0000F931F93CF93DF93D82F8B0182E293E068
:1046C0000E940803C82FD81708F4CD2F82E293E088
:1046D0000E94FE026C2F70E0A80182E293E00E942B
:1046E0008F0382E293E00E94AF038C2FDF91CF9182
:1046F0001F910F9108951F93CF93DF93162FD72FFC
:10470000C82F813808F0C0E88DE293E00E947B0258
:104710006C2F70E0412F5D2F8DE293E00E94E0024C
:104720008DE293E00E94F9028C2FDF91CF911F91CF
:10473000089581E008959093A70B8093A60B82E2E1
:1047400093E00E947B0281E08093B90C0895089564
:104750001092B90C82E293E00C94F9029091BA0C99
:1047600081E0911180E0089581E08093BA0C8DE2A0
:1047700093E00E94FE028DE293E00E940803811103
:1047800004C08DE293E00C94AF038091C80085FFD4
:10479000FCCF8DE293E00E9414038093CE00EBCF18
:1047A00008958DE293E00E94AF031092BA0C089531
:1047B00082E293E00C94B4038DE293E00C94B40392
:1047C000089581E0089508951F920F920FB60F92F9
:1047D00011240BB60F922F933F934F935F936F93D8
:1047E0007F938F939F93AF93BF93EF93FF938DE24C
:1047F00093E00E9408038823C9F08DE293E00E94B1
:1048000014038093CE00FF91EF91BF91AF919F91E0
:104810008F917F916F915F914F913F912F910F9069
:104820000BBE0F900FBE0F901F901895BADFEBCF05
:104830001F920F920FB60F9211240BB60F922F9367
:104840003F934F935F936F937F938F939F93AF9318
:10485000BF93EF93FF938091A60B9091A70B892BA9
:10486000B9F06091CE0082E293E00E9486028091CE
:10487000A60B9091A70B8F3F980751F09C012150F8
:1048800031093093A70B2093A60B892B09F460DF25
:10489000FF91EF91BF91AF919F918F917F916F9118
:1048A0005F914F913F912F910F900BBE0F900FBED4
:1048B0000F901F901895CF93DF93C091F604D0917D
:1048C000F704CE010E944709CE010E945F0B0E94AF
:1048D000940EDF91CF9108958BE693E00C94A81489
:1048E0008AE593E00C94A81489E493E00C94A8144E
:1048F00088E393E00C94A8140E94A714EDDFF0DF86
:10490000F3DFF6CF81EC93E00E9460128093D7032F
:1049100008958AEA93E00E9460128093C00308958C
:1049200083E993E00E9460128093A90308958CE7C5
:1049300093E00E946012809392030895E3DFE9DF21
:10494000EFDFF5CF8091F0049091F1040C94C61143
:104950000E94C7160C941E170E94AC0583E294E0D7
:104960000E94B5058CE394E00E94B50585E594E0CE
:104970000E94B50581EF93E00E94B5058AE094E0BE
:104980000E94B50588ED93E00C94B505CF93DF93B5
:104990000E944B1C0E949D1B0E94B71ACEECD4E0D3
:1049A000EAA1FBA10180F281E02D0995ECA1FDA116
:1049B0000180F281E02D0995EEA1FFA10180F28135
:1049C000E02D0995E8A5F9A50180F281E02D099572
:1049D0000E94940DDF91CF9108952DE830E043E8D7
:1049E00050E064E170E088EA9CE00C94031288EAED
:1049F0009CE00C94491288EA9CE00C941F1288EA0F
:104A00009CE00C943512E9CF089588E199E20FB645
:104A1000F894A895809360000FBE90936000A895CD
:104A2000B5DFF1DF48DF68DF89DF96DF8BDF90CF0E
:104A3000EE0FFF1F0024001C0BBE0790F691E02D27
:104A40000994A29FB001B39FC001A39F700D811D67
:104A50001124911DB29F700D811D1124911D089587
:104A60002F923F924F925F926F927F928F929F927E
:104A7000AF92BF92CF92DF92EF92FF920F931F936C
:104A8000CF93DF93CDB7DEB7CA1BDB0B0FB6F8941D
:104A9000DEBF0FBECDBF09942A88398848885F845D
:104AA0006E847D848C849B84AA84B984C884DF80CE
:104AB000EE80FD800C811B81AA81B981CE0FD11DB2
:104AC0000FB6F894DEBF0FBECDBFED010895F89488
:104AD000FFCFC307CD073F086208D10827091D098A
:104AE0008809A709EC095B0A380ACC0AF80A3F0BC7
:104AF0006E047104740477047A047D0480048304D2
:104B0000860489048C048F049204950498049B0401
:104B10009E04A104A404A704AA04AD04B004B30431
:104B2000B604B904BC04BF04C204C504C804CB0461
:104B3000028B1D8D1DE91DF61DF81D0F1E311E4532
:104B40001E621E241E2F1E671E791E7A1E7F1E8166
:104B50001E831E871E931E01DC22DD224C2354235C
:104B600058237B239B23A723A823AE239923B42375
:104B7000D023D123D823DC23E023E123E323015DE9
:104B8000215E21CD21D521D921FC211C22282229D9
:104B9000222F221A2235225122522259225D2261CD
:104BA000226222642200CA1FD91F40204E205020BA
:104BB000632084209020892078207E20BC20C8207B
:104BC0008C20F820FA20FC20FD20092101FFFFFFA6
:104BD000FF0103037F06600000DF066000000100A4
:104BE00001010101000000000000000000000000C1
:104BF00000000000000000000000000000000000B5
:104C000000000000000000000000000000000000A4
:104C10000000000000000000000000000000000094
:104C200000000000000000006107600000000000BC
:104C30000000570F580F9E0F1A10000000000000D0
:104C40000000000000000000000000AC0F6D0261D9
:104C500002660F6A0F6F0F740F7A0F800F840F6256
:104C60000F880F8C0F900F940F9A0FFF2F080000E2
:104C7000000000002000004F08000000000000209D
:104C8000000000000000005116521655167416C69A
:104C900016000000000000000000001E17EB16F5D3
:104CA00016F016FA1603172617BF020D170000019B
:104CB0002817024D17032A18040F1906A2170570AA
:104CC0001807661908A71909291A0AE8190C971A6A
:104CD0009B080000000000008000001B090000008D
:104CE000000000800000A209000000000000800019
:104CF00000220A000000000000800000A60A000058
:104D000000000000800000260B0000000000008072
:104D10000000A80B000000000000800000280C002C
:104D2000000000000080000000AA04020000000053
:104D300000000000000000000000AD0402000000C0
:104D40000000000000000000000000B004020000AD
:104D5000000000000000000000000000B30402009A
:104D600000000000000000000000000000CB040272
:104D70000000000000000000000000000000000033
:104D80000000FF00C8040200000000000000000056
:104D9000000000000000000000FF00C50402000049
:104DA0000000000000000000000000000000000003
:104DB000FF00C2040200000000000000000000002C
:104DC00000000000000000FF00000000006A077EF5
:104DD000078107A8073B0900000000000000000051
:104DE0000000000000007C067D0680068806F906AB
:104DF000FA06FB06FC06FD06000000000000003A73
:104E0000133B133E134313F3130000000000000094
:104E10000000000000000000A815AC15AF15B81583
:104E2000CD150000000000000000000000000000A0
:104E3000007A0B8B0B8E0B9F0B000000000000858F
:104E40000D860D000000000000005B096309660983
:104E500077090000000000005D0B5E0B000004807D
:104E60002804402804204004104004084004044062
:104E700004024004014003804003404003204003FB
:104E800010400308A003042803021003011002804D
:104E90001002402802201002101002089002049014
:104EA000020290020190018040014040012048012F
:104EB0001028010828010428010228010128161BD6
:104EC000191BE61A1C1B2C1B401BFE062807F104AD
:104ED000F304F604FA04361CA61BD81BEB1C091DB0
:104EE000B5018E016701400140506070870DB00D23
:104EF000B30DBE0DCC0DDC0DFA0D090E170E230EF1
:104F0000230E390E470E550E610E610E8E0D910D5A
:104F1000770E880E000300000001004B0000000027
:104F20000000000000000000000000000000000081
:104F30000000000000000000000000000000000071
:104F40000000000000000000000000000000000061
:0E4F5000000000000000000000000000000053
:00000001FF
