:1000000054C0000070C000006EC000006CC0000052
:100010006AC0000068C0000066C0000064C0000044
:1000200062C000000C94571A5EC000005CC0000063
:100030005AC0000058C0000056C0000054C0000064
:1000400052C0000050C000004EC000000C94FA1FC7
:100050000C94852148C000000C94512144C000003C
:1000600042C0000040C000000C94821D3CC0000053
:100070000C94052338C000000C94D12234C0000039
:1000800032C0000030C000002EC000005A076407D4
:10009000D407F7076708BB08AE082209410986099B
:1000A000F409D009370A620AD60A11241FBECFEF1D
:1000B000D0E4DEBFCDBF15E0A0E0B1E0EEEAF8E4A9
:1000C00000E00BBF02C007900D92AE36B107D9F722
:1000D0002CE0AEE6B5E001C01D92A83EB207E1F704
:1000E00008D00C9455248CCFF8940E94F323789474
:1000F0000895FADF26D57AD5A895FCCF61E08FEB7D
:1001000094E00E94901A61E08FEB94E00C94C21A84
:1001100061E08FEB94E00E94901A60E08FEB94E036
:100120000C94C21A61E08CEB94E00E94901A61E09A
:100130008CEB94E00C94C21A61E08CEB94E00E948A
:10014000901A60E08CEB94E00C94C21A61E087EAAC
:1001500094E00E94901A61E087EA94E00C94C21A3D
:1001600060E087EA94E00E94901A61E087EA94E0F8
:100170000C94C21A87EA94E00E94F81B91E0811166
:1001800090E0892F089560E084EA94E00E94901A3C
:1001900062E084EA94E00C94C21AF5CF089561E01D
:1001A00081EA94E00E94901A60E081EA94E00C9465
:1001B000C21A60E081EA94E00E94901A62E081EA4B
:1001C00094E00C94C21A60E08EE994E00E94901AC8
:1001D00061E08EE994E00C94C21A61E08BE994E04E
:1001E0000E94901A61E08BE994E00C94C21A60E0DE
:1001F0008BE994E00E94901A61E08BE994E00C9402
:10020000C21A60E08BE994E00E94901A62E08BE9E8
:1002100094E00C94C21A61E088E994E00E94901A7C
:1002200061E088E994E00C94C21A60E088E994E007
:100230000E94901A61E088E994E00C94C21A60E090
:1002400088E994E00E94901A62E088E994E00C94B6
:10025000C21A61E08EE694E00E94901A60E08EE699
:1002600094E00C94C21A60E08EE694E00E94901A2A
:1002700061E08EE694E00C94C21A8EE694E00E944F
:10028000F81B91E0813009F090E0892F08958EE607
:1002900094E00E94F81B91E0811190E0892F08956D
:1002A000FC0120813181622B732B7183608308955F
:1002B000FC01808191816823792381E090E0672BA4
:1002C00011F480E090E0089560957095FC01208124
:1002D000318162237323718360830895FC0111824D
:1002E00010820895FC018181811109C080818111F2
:1002F00002C081E0808381E081838081089580E075
:100300000895FC018181882351F08081861307C004
:100310008E3F11F481E001C08F5F808311820895C8
:1003200021E0FC018181811101C020E0822F08952C
:10033000FC01138221E024830895FC0193818281D2
:10034000981302C01382148280819181238131E04D
:10035000320F3383FC01E20FF11D60830895FC012D
:100360008481882311F0238101C0228140E050E084
:1003700060E070E0421760F4A081B181A40FB51F66
:100380008C91680F711D87FD7A954F5F5F4FF2CF9B
:1003900030E040E050E0072E000C880B990B43D270
:1003A000862F0895FC018481882311F0938101C078
:1003B000928120E030E080E0291758F4A081B181DB
:1003C000A20FB31F4C9184170CF4842F2F5F3F4F63
:1003D000F3CF0895FC018481882311F0938101C03B
:1003E000928120E030E08FE7291758F4A081B18195
:1003F000A20FB31F4C9148170CF4842F2F5F3F4F6F
:10040000F3CF0895FC01138221E024830895FC01B9
:1004100093818281981302C013821482808191811A
:10042000238131E0320F3383FC01E20FF11D608341
:100430000895FC018481882311F0238101C0228169
:1004400040E050E060E070E0421750F4A081B181DC
:10045000A40FB51F8C91680F711D4F5F5F4FF4CFD4
:1004600030E040E050E080E090E0B3D1862F089586
:10047000FC018481882311F0938101C0928120E0E6
:1004800030E080E0291758F4A081B181A20FB31F9A
:100490004C91841708F4842F2F5F3F4FF3CF0895BA
:1004A000FC018481882311F0938101C0928120E0B6
:1004B00030E08FEF291758F4A081B181A20FB31F4C
:1004C0004C91481708F4842F2F5F3F4FF3CF0895C6
:1004D000FC01128613821282158214821782168200
:1004E0000895FC019285892F827091FF04C0828556
:1004F0008260828781E00895FC01828526813781B0
:100500008085918528173907D1F084819581A08154
:10051000B181A80FB91F6C93848195810196958351
:100520008483868197810196978386832481358190
:10053000808591852817390711F415821482089552
:100540001F93CF93DF93EC01172FD6DF612FCE01DE
:10055000D3DFDF91CF911F910895CF92DF92EF9279
:10056000FF92CF93DF93EC016A017B01642FC4DF1C
:1005700099278F2D7E2D6D2DCE01BEDFB7018827E7
:100580009927CE01B9DF6F2D772788279927CE01CC
:10059000B3DFDF91CF91FF90EF90DF90CF90089580
:1005A000EF92FF920F931F93CF93DF937C01EA01A9
:1005B0008A01060F171FC017D10721F06991C701E3
:1005C0009BDFF9CFCDB7DEB7E6E00C944624FC0103
:1005D00092859D7F92870895FC019285892F817075
:1005E00090FF04C082858160828781E00895FC01CC
:1005F000868197810895FC012681378180859185C8
:10060000821B930B0895FC01828586819781892B3B
:10061000E9F082819381A081B181A80FB91F8C91EB
:10062000228133812F5F3F4F33832283268137819D
:1006300021503109378326834281538120853185BA
:100640004217530721F413821282089580E008951F
:100650000F931F93CF93DF938C01D5DFC82FD0E08A
:10066000C801D1DF9E01382BC901DF91CF911F91C5
:100670000F910895CF92DF92EF92FF921F93CF9345
:10068000DF93EC01C0DFC82ED12CE12CF12CCE0180
:10069000BADF182FCE01B7DF90E0A0E0B0E0DC01B8
:1006A00099278827912BC82AD92AEA2AFB2ACE0122
:1006B000AADFA7019601582BCA01B901DF91CF919A
:1006C0001F91FF90EF90DF90CF900895A0E0B0E0F1
:1006D000ECE6F3E00C9428246C018B017A01C0E075
:1006E000D0E0C017D10771F0F60186819781892B80
:1006F00011F48E0107C0C60186DFF70181937F01E7
:100700002196EFCFC801CDB7DEB7E8E00C944424C2
:10071000FC0192859E7F92870895FC0113821282CC
:100720001582148217821682089525E030E0FC01BC
:1007300033832283118210820895EF92FF920F93E8
:100740001F93CF93DF93EC017B016A817B8161155D
:10075000710551F480916E0581111EC081E0809376
:100760006E050C811D8110C0888199812BD181116A
:10077000F1CF12C0D801ED91FC91309711F0C70173
:100780000995F801028113810115110599F7F6D039
:100790009983888310926E05CDB7DEB7E6E00C949E
:1007A0004624DC011496ED91FC911597309729F4BD
:1007B00015967C936E931497089582819381009788
:1007C00011F0FC01FACF73836283FB011382128262
:1007D0000895CF92DF92EF92FF92211531054105E6
:1007E0005105B1F0C12CD12C760162177307840733
:1007F000950750F0EFEFCE1ADE0AEE0AFE0A621BF2
:10080000730B840B950BF1CF3C2D2D2DC70104C02C
:1008100030E020E080E090E0632F722FFF90EF90B7
:10082000DF90CF9008958F929F92AF92BF92CF9218
:10083000DF92EF92FF9297FF43C057FF21C08824B9
:1008400099245401821A930AA40AB50ACC24DD24FF
:100850007601C61AD70AE80AF90A80E090E0DC01BE
:10086000C814D904EA04FB0440F00196A11DB11D8F
:10087000C20ED31EE41EF51EF3CFBC01CD016BC02A
:100880002115310541055105B9F0CC24DD2476014F
:10089000C61AD70AE80AF90A80E090E0DC01C2161D
:1008A000D306E406F50638F10196A11DB11DC21A62
:1008B000D30AE40AF50AF3CF80E090E0DC011BC024
:1008C00057FF23C0882499245401821A930AA40A4A
:1008D000B50A6B017C0180E090E0DC01C814D9040A
:1008E000EA04FB0440F00196A11DB11DC20ED31E07
:1008F000E41EF51EF3CF9C01AD0166277727CB01DF
:10090000621B730B840B950B26C021153105410525
:100910005105C9F0DC01CB01C12CD12C7601821725
:100920009307A407B50750F06FEFC61AD60AE60A78
:10093000F60A821B930BA40BB50BF1CF5C2D4D2D4A
:100940003E2D2F2D04C050E040E030E020E0652F28
:10095000742F832F922FFF90EF90DF90CF90BF9056
:10096000AF909F908F90089580E0089580E090E090
:10097000089560E070E0CB01089508950C94091A81
:100980000895CF93DF93EC010E94091A9A8389831B
:1009900081E08883DF91CF910895CF93DF93EC01BD
:1009A0000E94E11969837A838B839C8381E0888329
:1009B000DF91CF910895FC0181E09081913009F0A1
:1009C00080E008950F931F93CF93DF938C01EB0189
:1009D0000E94091A9C01201B310B81E02C173D0756
:1009E00008F480E0DF91CF911F910F910895CF938C
:1009F000DF93FC012081213041F4EC010E94091AAF
:100A000029813A81821B930B02C080E090E0DF9144
:100A1000CF910895CF93DF93EB01E9DF21E08C17AD
:100A20009D0708F420E0822FDF91CF9108950F9366
:100A30001F93CF93DF93FC012081213061F4EC01FF
:100A40000E94E11909811A812B813C81601B710B85
:100A5000820B930B03C060E070E0CB01DF91CF917C
:100A60001F910F910895CF92DF92EF92FF926A014A
:100A70007B01DDDF21E06C157D058E059F0508F407
:100A800020E0822FFF90EF90DF90CF90089510929A
:100A90007205109271051092700510926F050895FD
:100AA000CF93DF93EC01188E1F8A8091DC0188833D
:100AB0008F5F8093DC01ED81FE810995E091D00488
:100AC000F091D10409959C838B83EF81F88509957A
:100AD0009A838983EF81F8850995A0E0B0E0409181
:100AE000DD015091DE016091DF017091E00184171A
:100AF0009507A607B70768F4EF81F8850995A0E088
:100B0000B0E08093DD019093DE01A093DF01B0930C
:100B1000E0018091710590917205892B29F4D093A1
:100B20007205C093710506C0E0916F05F0917005E4
:100B3000D08FC78BD0937005C0936F05DF91CF9195
:100B40000895AF92BF92CF92DF92EF92FF921F93E0
:100B5000CF93DF93C0917105D091720511E0E090C1
:100B6000D004F090D104C090D604D090D704209740
:100B700029F1EF81F8850995892B41F069817A8106
:100B80008B819C81F60109958823A1F0EF81F8857E
:100B90000995892B51F0F70109955C01EF81F885E2
:100BA00009959A838983BC82AB82E985FA85099588
:100BB000811108C00F88D88DC02DD9CF112361F0C5
:100BC00029D00AC0EB85FC850995E985FA85099548
:100BD000882381F310E0EECFDF91CF911F91FF903A
:100BE000EF90DF90CF90BF90AF900895CF93DF93B9
:100BF000C0917105D0917205209749F0ED85FE8571
:100C0000309709F009950F88D88DC02DF5CFDF9169
:100C1000CF91089583B7817F866083BFF89483B7AF
:100C2000816083BF85B7806685BF8F7D85BF7894DF
:100C30008895F89483B78E7F83BF7894089508953C
:100C400085E090E0089580917805811105C080913C
:100C5000AB05811101C0089582E008950F931F93A1
:100C6000CF93DF938091AB05813071F028F0823013
:100C700091F0833099F148C080917805882309F478
:100C800046C081E08093AB0539DA83E795E085DEE5
:100C900082E08093AB05C9E7D5E00091D8041091BC
:100CA000D9048881882391F069817A818B819C8124
:100CB00022E330E040E050E0F8010995882331F06C
:100CC0001882809178058150809378052596F5E00B
:100CD000CB3ADF0731F783E08093AB0544E650E081
:100CE00060E070E083E795E0BEDE811102C082E043
:100CF00005C080917805882321F081E08093AB05C1
:100D000006C084E08093AB0503DA1092AB05DF9157
:100D1000CF911F910F910895089508950895089512
:100D20000895CF93DF93E9E7F5E020E030E090818C
:100D3000911118C095E0929FE001939FD00D11246E
:100D4000C758DA4F8883E091D204F091D304099513
:100D500069837A838B839C83809178058F5F8093EE
:100D6000780506C02F5F3F4F35962A303105F9F6DA
:100D7000DF91CF91089580E008952091D5053091BD
:100D8000D605232B21F49093D6058093D50508959D
:100D9000BC0189EC95E0D1CC8FEC95E0C6CCBC01D0
:100DA0008FEC95E0CACCBC018FEC95E0FACC89ECD5
:100DB00095E0BBCCBC0189EC95E0F3CC8DEB96E0E3
:100DC0009093C6058093C50585EC95E0ECCF2CE9A2
:100DD00030E042E950E065E070E08CEA95E00C9488
:100DE00090118CEA95E00C94D9118CEA95E00C9462
:100DF000AD118CEA95E00C94C311CEDFD8DFDEDFB5
:100E0000E6DF1092BE051092C0051092BF05109249
:100E1000C4051092C3051092C2051092C1050C942E
:100E2000901980E090E008958091BE05811120C066
:100E30008091C3059091C405892BD1F48091D5058B
:100E40009091D6050097B1F09093C4058093C305A7
:100E50008CEF94E09093C2058093C10588EC96E0F6
:100E60009093C0058093BF051092D6051092D505CA
:100E700082E0089580E00895A0E4B0E0E2E4F7E0C5
:100E80000C942D24E091BE058E2F90E0FC0131974B
:100E9000E730F10520F4EA5BFF4F0C9406248091C3
:100EA000C3059091C405892B09F478C181E0809332
:100EB000BE059BDF96DF882309F470C182E0809332
:100EC000BE058BEB95E05DDD6AEF70E08BEB95E0A6
:100ED000A1DD882311F087E04BC1E091C105F091BD
:100EE000C20504A0F5A1E02D0995882309F456C197
:100EF000E091C305F091C4050780F085E02D0280E4
:100F0000F381E02D0995182FE091C305F091C405F8
:100F10000780F085E02D0190F081E02D0995E091AA
:100F2000C305F091C4050780F085E02D0284F385A8
:100F3000E02DBE016F5F7F4F812F90E00995E0911A
:100F4000C305F091C4050780F085E02D0484F58584
:100F5000E02D0995E091C105F091C2050280F38171
:100F6000E02D0995E091C105F091C205068CF78D41
:100F7000E02D0995E091C105F091C2050284F38549
:100F8000E02DBE016F5F7F4F812F0995E091C10574
:100F9000F091C2050688F789E02D099583E08093DA
:100FA000BE058BEB95E0EDDC62E370E08BEB95E04A
:100FB00031DD811190CFE091C105F091C205028829
:100FC000F389E02D0995882309F4E8C0E091C10573
:100FD000F091C205028CF38DE02D099584E0809399
:100FE000BE058BEB95E0CDDC88EB95E0CADC6AEFC3
:100FF00070E08BEB95E00EDD81116DCF66E470E063
:1010000088EB95E007DD882309F4C8C088EB95E0FC
:10101000B8DCE091C105F091C205048CF58DE02D9E
:101020000995E091C105F091C2050484F585E02D94
:1010300081E090E00995E091C105F091C205068438
:10104000F785E02D65E070E081E00995E091C1054C
:10105000F091C2050088F189E02D0995E091C10564
:10106000F091C2050680F781E02D0995882309F4E7
:1010700095C0E091C105F091C2050084F185E02D95
:10108000BE016F5F7F4F81E009958981882309F454
:1010900085C0E091C105F091C2050484F585E02D7D
:1010A00090E00995E091C105F091C2050684F785AD
:1010B000E02D62E370E089810995E091C105F0912E
:1010C000C2050088F189E02D099585E051C0E091C5
:1010D000C105F091C2050084F185E02DBE016E5F6F
:1010E0007F4F80E40995811107C087E08093BE059A
:1010F00088EB95E046DC52C0E091C305F091C40551
:101100000184F285E02D0190F081E02D099589811F
:10111000E091C305F091C4050184F285E02D0084BF
:10112000F185E02DBE016E5F7F4F90E00995E09163
:10113000C305F091C4050184F285E02D0284F38596
:10114000E02D0995E091BF05F091C005309779F049
:101150008091C3059091C405099509C0E091C3052C
:10116000F091C4050580F681E02D84E0099586E0C4
:101170008093BE0513C03DDE1092C4051092C305D6
:10118000E091C105F091C20506A0F7A1E02D0995F7
:101190001092C2051092C1051092BE05C05CDF4FCF
:1011A000E3E00C944924089585E296E0BECABC01B0
:1011B00085E296E0C2CABC0185E296E0F2CAE9ED9A
:1011C000F5E014821182128221E0238320831582AC
:1011D0009093240680932306EBEBFCE011A28FE7AB
:1011E00082A3E2CF1092E1018EE296E0CADB109278
:1011F000E201089582E390E008958091E201811177
:101200000AC060E67AEE8EE296E004DC882319F0EC
:1012100082E08093E2018091E2010895ADE0B0E0C8
:10122000E4E1F9E00C942E24E091E1018E2F90E0AE
:101230008830910528F4FC01E35BFF4F0C940624F1
:101240001092E101E0912306F091240603A0F4A19D
:10125000E02D09958093D805882309F4C4C10E9424
:10126000E923E0912306F09124060380F481E02D28
:1012700089ED95E009958EE296E083DB81E080932D
:10128000E1010E94E523882309F4ADC1E091230622
:10129000F09124060388F489E02D0995882309F448
:1012A000A2C169E170E08EE296E0B4DB882309F424
:1012B0009AC11F821886E0912306F0912406078CBC
:1012C000F0A1E02D0995E0912306F091240601A0FC
:1012D000F2A1E02D88E40995E0912306F09124061F
:1012E0000384F485E02DBE01695F7F4F82E009959C
:1012F000E0912306F09124060788F08DE02D0995F2
:1013000082E08093E1018BE296E03BDBE0912306F3
:10131000F09124060388F489E02D0995811114C009
:101320006AEF70E08BE296E075DB882309F45BC11D
:1013300087E08093E101E0912306F0912406038C7D
:10134000F48DE02D09954FC181E08F831986E091DE
:10135000D705F0E0E850FB4F80818077836888876D
:10136000E0912306F09124060384F485E02DBE016C
:10137000695F7F4F83E00995E0912306F091240691
:1013800001A0F2A1E02D88E40995E0912306F091F7
:1013900024060788F08DE02D099584E08093E10113
:1013A000E0912306F09124060588F689E02D099541
:1013B000882309F418C1E0912306F091240601A0C6
:1013C000F2A1E02D88E40995E0912306F09124062E
:1013D0000584F685E02D82E090E009958BE296E0A9
:1013E000D0DA83E08093E101E0912306F0912406B6
:1013F0000780F085E02D0995823008F46DC082E009
:101400008093E201E0912306F09124060184F285A5
:10141000E02DBE016F5F7F4F83E00995898187FDD5
:1014200002C084E0BDC01F82E0912306F091240633
:101430000384F485E02DBE01695F7F4F81E009954B
:10144000E0912306F091240601A0F2A1E02D88E4AA
:101450000995E0912306F09124060788F08DE02D90
:1014600009958BE296E08DDA85E08093E101E091C9
:101470002306F09124060388F489E02D099588233A
:1014800059F165E070E08BE296E0C4DA882309F454
:10149000AAC0E0912306F091240601A0F2A1E02D5C
:1014A00088E40995E0912306F09124060584F685E9
:1014B000E02D82E090E009958BE296E062DA86E02A
:1014C0008093E101E0912306F09124060780F085E6
:1014D000E02D0995823068F581E08093E2016AEFA2
:1014E00070E08BE296E096DA882309F47CC0E09104
:1014F0002306F0912406038CF48DE02D0995E091EC
:101500002306F0912406058CF68DE02D0995E091D7
:101510002306F09124060188F289E02D0995E091D7
:101520002306F0912406078CF0A1E02D099587E0B1
:1015300037C082E08093E201E0912306F091240617
:101540000184F285E02DBE016F5F7F4F09952981EF
:101550003A813227232732273D872C878091D70570
:10156000813079F048F0823089F0833099F43093FB
:10157000D70C2093D60C0EC03093D10C2093D00CF6
:1015800009C03093D30C2093D20C04C03093D50CF7
:101590002093D40C8F5F8093D705843020F481E0B2
:1015A0008093E10120C0CE010C9601DE1092D70598
:1015B0001092E1018EE296E0E4D91092E201E0910E
:1015C0002306F09124060580F681E02D0995E0912F
:1015D0002306F091240605A0F6A1E02D8091D80500
:1015E00009950E94ED232D96E2E00C944A2408957B
:1015F0000895E3E3F6E014821182128221E023834E
:101600002083158290937E0680937D06EBEBFCE0B1
:1016100011A28FE782A389EE91E00E94980184EEE7
:1016200091E00C9402021092320689E497E0A9D965
:1016300084E497E0B2D9EBEBFCE08FE782A384E689
:1016400086A31092E301089582E390E008958091CB
:10165000E30181110AC060E67AEE89E497E0DAD905
:10166000882319F082E08093E3018091E3010895DB
:10167000ABE0B0E0EEE3FBE00C942E248091320668
:10168000823009F47BC028F4882369F0813051F15D
:1016900008C0843009F4EDC008F4ABC0853009F40B
:1016A000A9C110923206E0917D06F0917E0603A05A
:1016B000F4A1E02D099580933106882309F4B6C181
:1016C0000E94E923E0917D06F0917E060380F4817B
:1016D000E02D83E396E0099589E497E052D982E012
:1016E000809332060E94E523882309F49FC1E0918C
:1016F0007D06F0917E060388F489E02D0995882304
:1017000009F494C10E94E523882309F48FC180E382
:101710008F8381E48887E0917D06F0917E06058CB9
:10172000F68DE02D0995E0917D06F0917E06078CFF
:10173000F0A1E02D0995E0917D06F0917E0601A0D3
:10174000F2A1E02D84E40995E0917D06F0917E06FA
:101750000384F485E02DBE01695F7F4F82E0099527
:10176000E0917D06F0917E060788F08DE02D0995C9
:1017700089E497E006D982E080933206E0917D0605
:10178000F0917E060388F489E02D0995811104C04B
:1017900081E08093E30137C082E08093E30184E23B
:1017A0008F8386E18887E0917D06F0917E0601A017
:1017B000F2A1E02D84E40995E0917D06F0917E068A
:1017C0000384F485E02DBE01695F7F4F82E00995B7
:1017D000E0917D06F0917E060788F08DE02D099559
:1017E0008FE397E0DAD883E08093320681E080933C
:1017F000E301E0917D06F0917E060588F689E02DF3
:101800000995811110C06AEF70E089E497E002D970
:10181000882309F40BC1E0917D06F0917E06038CCC
:10182000F48DE02D5CC040E150E060E070E08FE3BB
:1018300097E019D9882309F4F9C082E08093E30185
:10184000E0917D06F0917E0601A0F2A1E02D84E4F6
:101850000995E0917D06F0917E060584F685E02DE0
:1018600086E090E009958FE397E097D884E0809335
:101870003206E0917D06F0917E060780F085E02D2E
:101880000995863088F581E08093E3014AEF50E0C6
:1018900060E070E08FE397E0E6D8882309F4C6C0E3
:1018A000E0917D06F0917E06038CF48DE02D099584
:1018B000E0917D06F0917E06078CF0A1E02D099560
:1018C000E0917D06F0917E060188F289E02D099570
:1018D000E0917D06F0917E06058CF68DE02D099550
:1018E00085E080933206A2C082E08093E301E0911C
:1018F0007D06F0917E060184F285E02DBE016F5FCA
:101900007F4F86E0099529813A81322723273227A4
:101910003093D90C2093D80CAFEAB0E00E940F248A
:101920004FEC480F4093DF0C8091DC0C841714F4CB
:101930004093DC0C8091DD0C481714F44093DD0CCF
:101940002C813D813227232732273093DB0C2093D3
:10195000DA0CA4E6B0E00E940F24AA27BB27282FA8
:101960008093E30C3091E00C381710F44093E00CB6
:101970003091E10C231710F48093E10C40EA5BEB0B
:101980006DE070E084E497E06ED8811133C084E4A8
:1019900097E003D86091DF0C89EE91E00E949D01F1
:1019A00089EE91E00E94D2018093DC0C89EE91E0F7
:1019B0000E94EA018093DD0C89EE91E00E94AF0164
:1019C0008093DE0C6091E30C84EE91E00E940702AC
:1019D00084EE91E00E9438028093E00C84EE91E066
:1019E0000E9450028093E10C84EE91E00E94190263
:1019F0008093E20C1092320689E497E00E94C104C1
:101A00001092E301E0917D06F0917E060580F6815B
:101A1000E02D0995E0917D06F0917E0605A0F6A1E6
:101A2000E02D8091310609950E94ED232B96E2E08E
:101A30000C944A2408950895ECE4F7E09583848398
:101A400073836283089580934C07089580914C07B7
:101A50000895ECE4F7E08091F6049091F704958303
:101A600084838EEE91E09383828381E18083089565
:101A7000DC011496ED91FC9115970380F481E02D23
:101A800012968D919C911397099508958CE497E097
:101A9000EFCFFCCF0895DC011496ED91FC911597E2
:101AA0000780F085E02D099508958CE497E0F3CF49
:101AB000262FDC011496ED91FC9115970184F28597
:101AC000E02DBA01822F09950895AB01682F8CE4AF
:101AD00097E0EECF262FDC011496ED91FC9115973F
:101AE0000384F485E02DBA01822F09950895AB0196
:101AF000682F8CE497E0EECF0F931F93CF93DF9383
:101B0000EC018B01EC81FD8101A0F2A1E02D888127
:101B10000995EC81FD810584F685E02DC8010995C4
:101B2000DF91CF911F910F910895BC018CE497E054
:101B3000E3CF262FDC011496ED91FC9115970784D5
:101B4000F089E02DBA01822F09950895AB01682F25
:101B50008CE497E0EECFDC011496ED91FC911597A3
:101B60000188F289E02D099508958CE497E0F3CF80
:101B7000DC011496ED91FC9115970388F489E02D12
:101B8000099508958CE497E0F3CFCF93DF93EC01B0
:101B9000EC81FD8101A0F2A1E02D88810995EC8105
:101BA000FD810788F08DE02D0995DF91CF91089593
:101BB0008CE497E0EACF262FDC011496ED91FC919E
:101BC0001597018CF28DE02DBA01822F09950895A9
:101BD000AB01682F8CE497E0EECFDC011496ED9119
:101BE000FC911597038CF48DE02D099508958CE4F4
:101BF00097E0F3CFDC011496ED91FC911597078CDB
:101C0000F0A1E02D099508958CE497E0F3CFCF93F0
:101C1000DF93FC01218121110BC0EC010480F581CF
:101C2000E02D03A0F4A1E02D0995898381E001C096
:101C300080E0DF91CF9108958CE497E0E8CFCF93D7
:101C4000DF93EC01EC81FD8105A0F6A1E02D8981F7
:101C500009951982DF91CF9108958CE497E0EFCF39
:101C60008DE69EE0909359078093580788E597E0AA
:101C7000A2CAEBEBFCE011A684E682A783E297E61A
:101C8000909357078093560785ED90E09093550702
:101C90008093540786E091E0909353078093520716
:101CA000DFCF6091560770915707CB01A0E0B0E0FD
:101CB0002091540730915507BC01CD01621B730B75
:101CC0008109910924E630E040E050E00E94E903F8
:101CD000709353076093520708958CE597E00E9434
:101CE000DB04811104C08CE597E00E94CD04809153
:101CF000D60C9091D70C2091560730915707281792
:101D0000390728F49093570780935607CADF8091CC
:101D1000D60C9091D70C209154073091550782171B
:101D2000930728F49093550780935407BADF2091C6
:101D300052073091530740E050E060915607709190
:101D400057078091D60C9091D70C681B790B80E0D7
:101D500090E00E94E9036093E70C8091E50C68171E
:101D600010F46093E50C8091E40C861710F46093F6
:101D7000E40C40EA5BEB6DE070E08CE597E00E94DC
:101D800033058823E1F08CE597E00E94CD04609153
:101D9000E70C88E392E00E94070288E392E00E9449
:101DA00038028093E40C88E392E00E945002809312
:101DB000E50C88E392E00E9419028093E60C0895F6
:101DC000089580917B02811103C085E090E0089521
:101DD00080E090E0089587E892E00C94F7028CE7A9
:101DE00092E00C947102682F8CE792E00C947C02D4
:101DF000BC018CE792E00C94A002AB01BC018CE723
:101E000092E00C94AD02AB01BC018CE792E00C9423
:101E1000D0028CE792E00C94E70287E892E00C9401
:101E2000EC0287E892E00C94030387E892E00C94BC
:101E3000280387E892E00C943A03AB01BC0187E8E1
:101E400092E00C94660387E892E00C9488030E9469
:101E5000470190917B02911105C0882319F082E01F
:101E600080937B0280917B020895CF93C82F61E01D
:101E700070E087E298E00E945801892B71F0C093CE
:101E8000580261E070E087E298E00E94640162E03D
:101E900070E087E298E00E945001CF91089587E8B2
:101EA00092E00C94680287E892E00C948D0387E836
:101EB00092E00C947102AB01BC0187E892E00C94B3
:101EC000D00287E892E00C94E7028CE792E00C9451
:101ED00068028CE792E00C94F7028CE792E00C9495
:101EE000FB028CE792E00C94EC02AB01BC018CE7A6
:101EF00092E00C9466038CE792E00C94880381E2F4
:101F000098E00C949503BC0181E298E00C949D0349
:101F10008BE198E00C949503BC018BE198E00C9464
:101F20009D0385E198E00C949503BC0185E198E060
:101F30000C949D038FE098E00C949503BC018FE016
:101F400098E00C949D03A3E2B0E0E9EAFFE00C9472
:101F50002C248091C2078230D1F128F4882359F0D3
:101F60008130B1F006C0833009F45AC1843009F4DD
:101F700066C11092C2070E944701811103C01092EE
:101F80007B0288C180E090E0BEDF81E08093C207E1
:101F9000E0910D08F0910E080380F481E02D83ECB0
:101FA00097E00995E0910D08F0910E08058CF68DEB
:101FB000E02D0995E0910D08F0910E080584F68555
:101FC000E02D8FEF9FEF099582E08093C2070E947A
:101FD0004701811106C08CE298E00E94C10484E0B0
:101FE0002BC162E070E087E298E00E945801892BE3
:101FF00009F458C062E070E087E298E00E94640152
:1020000068DF8E5F89A3809157028AA3809158026E
:102010008BA3E0910D08F0910E08078CF0A1E02D44
:102020000995E0910D08F0910E080384F485E02DE8
:10203000BE016F5D7F4F83E0099553DF4ADF082FB4
:10204000002309F14ADF8823F1F0003210F4102F49
:1020500001C010E242DF811710F43FDF182FBE01EC
:102060006F5F7F4F812F90E040DFE0910D08F0918E
:102070000E080384F485E02DBE016F5F7F4F812F32
:102080000995011BDDCF37DF62E070E087E298E061
:102090000E946401E0910D08F0910E080788F08D10
:1020A000E02D09951092560289E298E00E94C10441
:1020B000E0910D08F0910E080780F085E02D09955C
:1020C0008823C9F065E070E089E298E00E940A0583
:1020D000811159C0E0910D08F0910E080184F2853C
:1020E000E02D66E572E081E0099580915602882333
:1020F000F9F28F3F51F080915602882309F479C09C
:1021000089E298E00E94C1040BC010925602D0CF21
:102110006AE070E089E298E00E940A05811133C00C
:10212000E0910D08F0910E080780F085E02D0995EB
:10213000882371F3E0910D08F0910E080184F28577
:10214000E02D67E572E081E00995ADDEB0DE89E261
:1021500098E00E94C1041091560211500AC0E0910B
:102160000D08F0910E080780F085E02D099581118A
:102170000CC01123A9F162E370E089E298E00E94AB
:102180000A05882361F313E035C0E0910D08F09152
:102190000E080780F085E02D0995803248F4E09123
:1021A0000D08F0910E080780F085E02D099501C01B
:1021B00080E2912F811708F4982FE0910D08F0919B
:1021C0000E080184F285E02DBE016F5F7F4F892FDD
:1021D0000995181BBE016F5F7F4F90E06CDEC9CF81
:1021E00070DE61E070E087E298E00E94500112E04A
:1021F00001C011E0E0910D08F0910E0805A0F6A1D4
:10220000E02D8091C1070995133021F480E090E022
:102210008CDE40C0123009F03DC083E08093C207DD
:1022200086E592E08BDEE0910D08F0910E08058CBA
:10223000F68DE02D099582E08093C2072BC00E94A5
:102240003D018823C1F364EF71E08CE298E00E94C5
:102250000A058823F9F0E0910D08F0910E08018835
:10226000F289E02D0995E0910D08F0910E08038C9C
:10227000F48DE02D0995E0910D08F0910E08058090
:10228000F681E02D09951092C20710927B0280E042
:1022900090E042DEA396E4E00C944824BC018FE079
:1022A00098E00C94D103CF93DF93EC010E942901B5
:1022B00087E298E00E946E01E6E5F2E01082148267
:1022C0001382EDDD02DE36DE1ADE22DE2ADE8AE44D
:1022D000E4E2F5E0A3ECB7E001900D928A95E1F716
:1022E000D0930E08C0930D08EBA1FCA10995809333
:1022F000C107E0910D08F0910E080380F481E02DF4
:1023000083EC97E0099510927B021092C2070E941D
:1023100033018DE392E00E945005DF91CF91089543
:10232000DC0112961C92129711967C936E93149670
:102330001C921E92139716965C934E9315971896BF
:102340003C932E93179719968C9119978E7F8D7FBA
:1023500019968C93F90109950895CF93DF93EC01B9
:102360008A8181110AC0ED81FE810995898582608B
:1023700089870E94BE049C838B838A818F5F8A83B6
:10238000DF91CF910895CF93DF93FC012281222327
:1023900069F0EC01213039F40780F085E02D0995D2
:1023A00089858E7F89878A8181508A83DF91CF9149
:1023B0000895CF93DF93EC01898581FF0CC068817C
:1023C00079818B819C810E94E204882331F0898588
:1023D00081608D7F898789858170DF91CF91089594
:1023E000DC018091720890917308892B51F4B093AD
:1023F0007308A0937208B0937108A093700881E0ED
:102400000CC0E0917008F09171088081B58BA48BAD
:10241000B0937108A09370088F5F8C938FEF149620
:102420008C93149715961C92159716961D921D92D3
:102430001D921C9219971A961D921D921D921C9224
:102440001D971E961D921D921D921C925197559696
:102450001C921E92549781E080936F08E091E604ED
:10246000F091E70411968D919C9112970995E09156
:102470007008F091710880810895EF92FF920F9398
:102480001F93E0917208F09173083097C1F090812A
:10249000981311C081E0611101C080E0858322871B
:1024A000338744875587E686F786008B118B81E05A
:1024B00080936F0805C00488F589E02DE6CF80E0A1
:1024C0001F910F91FF90EF900895EF92FF920F935D
:1024D0001F93CF93DF93FB01C0917208D0917308D3
:1024E000209791F1988198132BC08C8181838E85E0
:1024F0009F85A889B98982839383A483B5838A85BC
:102500009B85AC85BD8586839783A087B1878C81A9
:10251000813019F57F01E091D204F091D30409953F
:102520000E811F8128853985DC01CB01801B910B31
:10253000A20BB30BF70182879387A487B58711C0DD
:102540000C88DD89C02DCCCF1182128213821482B7
:1025500015821682178210861186128613861486BB
:102560001586CDB7DEB7E6E00C944624089585E0E5
:1025700090E0089580916F08811182E00895A0E0B5
:10258000B0E0E5ECF2E10C942624C0917208D09101
:10259000730810926F08E090D804F090D90401E01D
:1025A000C090EA04D090EB04A090D204B090D30481
:1025B000209709F449C01C811130A9F42A853B8574
:1025C0004C855D85211531054105510561F06E8110
:1025D0007F8188859985F7010995882311F01D82EF
:1025E00002C010936F088D819C81981749F18C83EC
:1025F00061E0813009F060E089819A81F6010995F6
:102600008C81813039F4F50109956E837F83888749
:1026100099870CC01E821F82188619861E861F8607
:10262000188A198A1A861B861C861D868A859B85B0
:10263000AC85BD85892B8A2B8B2B11F000936F08FD
:102640000C88DD89C02DB4CFCDB7DEB7EAE00C949D
:1026500042240895CF93DF93FC01C0917208D0917A
:102660007308209721F41482138212821BC0DE01AA
:1026700061110BC0B183A08381E0828384832C89A4
:102680003D89232B71F013820DC013968C91139703
:10269000681781F354960D90BC91A02D109741F7C7
:1026A000E2CF8383DF91CF910895EF92FF920F9352
:1026B0001F93CF93DF93FB01DC0114962C911497A9
:1026C0002223C1F1CD91DC91888180838C8181832B
:1026D0008E859F85A889B98982839383A483B583D6
:1026E0008A859B85AC85BD8586839783A087B187C6
:1026F0008E819F81A885B985892B8A2B8B2BB1F080
:102700007B01E091D204F091D30409950E811F81E1
:1027100028853985DC01CB01801B910BA20BB30B03
:10272000F70182879387A487B58704C01286138632
:1027300014861586CDB7DEB7E6E00C944624FC017E
:10274000A081B181109759F41482138212820895E6
:10275000662361F013968C911397681739F054969D
:102760000D90BC91A02D109799F7EECFB183A08367
:10277000128281E0848354962D913C915597232BAE
:1027800011F013820895838308950895FC018091C8
:10279000760890917708892B69F4F0937708E09395
:1027A0007608F0937508E0937408108A178681E024
:1027B000808311C0A0917408B09175088C915096D7
:1027C000FC93EE931F97F0937508E09374088F5F66
:1027D0008083108A178617821086118612861486C7
:1027E00013861686158614821582168280810895B6
:1027F0001F93CF93DF93EC01E091EE04F091EF048F
:1028000089819A810995182F8C81113081F5811168
:102810001BC01C83E091D204F091D30409956F830F
:10282000788789879A871D83E091D004F091D1043D
:1028300009959C878B871E821E861D86E091DA048F
:10284000F091DB0481E009958C818823E9F18D8189
:102850008823D1F1E091D604F091D70460E375E7C5
:102860008B859C850995882379F11D822DC088234D
:1028700099F08E81811110C081E08E83E091D004A7
:10288000F091D10409959E878D87E091DA04F0914B
:10289000DB0481E0099510C08D859E85009761F06D
:1028A000E091D604F091D70460E375E70995882399
:1028B00019F01E821E861D861C821D821C861B86A8
:1028C0001F82188619861A86DF91CF911F9108956D
:1028D000A0E0B0E0EEE6F4E10C942824FB01C09106
:1028E0007608D0917708209761F19881981325C0D8
:1028F0008C8181839D8192839E8193838823B1F013
:102900008F01E091D204F091D3040995CF80D8844F
:10291000E984FA84DC01CB018C199D09AE09BF0959
:10292000F80184839583A683B78304C0148215823B
:10293000168217821E821D820BC00F84D889C02D7B
:10294000D2CF1182128213821482158216821782CC
:10295000CDB7DEB7E8E00C94442488E798E00C9407
:10296000C10485E090E008956EE170E088E798E0AA
:102970000E940A05811182E00895CF93DF93C091F0
:102980007608D0917708209731F0CE0131DF0F849F
:10299000D889C02DF8CF88E798E00E94C104DF9164
:1029A000CF9108950895FC01A0917608B091770821
:1029B000109721F41482138212820895B183A083A8
:1029C00081E0828384831F962D913C915097232B25
:1029D00011F01382089583830895EF92FF920F936D
:1029E0001F93CF93DF93FB01DC0114962C91149776
:1029F000222331F1CD91DC91888180838C81818388
:102A00009D8192839E8193838823B1F07B01E09125
:102A1000D204F091D30409950F81188529853A8550
:102A2000DC01CB01801B910BA20BB30BF70184835C
:102A30009583A683B78304C01482158216821782F9
:102A4000CDB7DEB7E6E00C944624FC01A081B1814D
:102A5000109721F414821382128208951F960D900C
:102A6000BC91A02D1097B1F3B183A083128281E0B5
:102A700084831F962D913C915097232B11F0138244
:102A800008958383089585E090E0089580917F08FC
:102A90009091800890937E0880937D08E0917D0856
:102AA000F0917E08309769F00084F185E02D09955A
:102AB000811109C0E0917D08F0917E088289938997
:102AC000E9CF80E0089582E00895CF93DF93E0910D
:102AD0007D08F0917E08309709F446C00284F385A2
:102AE000E02D0995D82FC0E0E0917D08F0917E0897
:102AF0000484F585E02D0995C817D8F4A0917D08C8
:102B0000B0917E081E96ED91FC911F9783E0C89FBF
:102B1000E00DF11D11248081D81318C0C181D2812C
:102B20001696ED91FC9117970995FE0109958F3F37
:102B300079F4E0917D08F0917E08C089D189068002
:102B4000F781E02D0995FE01099502C0CF5FCCCF3A
:102B5000E0917D08F0917E080480F581E02D0995D3
:102B600010927E0810927D08DF91CF91089508950C
:102B7000089582E992E00C94500520917F083091ED
:102B80008008232B29F49093800880937F0806C047
:102B9000E0917B08F0917C08938B828B90937C086A
:102BA00080937B08FC01138A128A0895909382080F
:102BB00080938108089580918108909182080895FA
:102BC0001092820810928108089581E02091810876
:102BD00030918208232B09F480E00895E091810868
:102BE000F0918208309711F08181089580E0089576
:102BF000DC011596ED91FC91169782E0099582E033
:102C000008959093820880938108089581E096E169
:102C1000909384088093830883E898E03FCB1092D8
:102C2000820810928108F2DF8BEA92E0A6CF8BE057
:102C30000895CF93DF93EC01E985FA850190F08147
:102C4000E02D0995E985FA850280F381E02D85E084
:102C50000995E985FA850280F381E02D88E00995E0
:102C6000E985FA850284F385E02D0995ED81FE81E1
:102C700080E0099580E0DF91CF910895ADE0B0E06C
:102C8000E4E4F6E10C942A248C01DC011996ED9120
:102C9000FC911A970190F081E02D0995CE010996DB
:102CA00082DE8D85882381F1BE016F5F7F4FCE016B
:102CB000099693DE91E08A81811101C090E08B81B9
:102CC000811182E0F92EF82A8C81811102C0E12C59
:102CD00002C084E0E82ED8011996ED91FC911A9774
:102CE0000280F381E02D89810995D8011996ED9133
:102CF000FC911A970280F381E02D8E2D8F29099582
:102D0000CE010996A2DECDCFD8011996ED91FC91A6
:102D10001A970284F385E02D0995D8011596ED9157
:102D2000FC91169780E0099580E02D96E6E00C94E2
:102D30004624A8E0B0E0EFE9F6E10C9429248C01E8
:102D4000DC011796ED91FC9118970280F381E02D3C
:102D50000995D801811108C01596ED91FC9116973F
:102D600082E0099582E06DC01796ED91FC9118976D
:102D70000190F081E02D0995D8011796ED91FC9115
:102D800018970480F581E02D0995E82ED801179653
:102D9000ED91FC9118970484F585E02D0995BE010D
:102DA0006F5F7F4F8E2D94DD91E08A81811101C08C
:102DB00090E08B81811182E0D92ED82A8C818111FB
:102DC00002C0F12C02C084E0F82ED8011996ED91D2
:102DD000FC911A970190F081E02D0995D801199680
:102DE000ED91FC911A970280F381E02D8E2D0995CB
:102DF000D8011996ED91FC911A970280F381E02D8C
:102E00008F2D8D2909956D817E818F819885D801BF
:102E10001996ED91FC911A970680F781E02D09959E
:102E2000D8011996ED91FC911A970284F385E02D53
:102E30000995D8011596ED91FC91169780E00995BA
:102E400080E02896E7E00C944524A3E1B0E0EBE2B3
:102E5000F7E10C942C248C01DC011996ED91FC9186
:102E60001A970190F081E02D099562E0CE010F964E
:102E7000F1DB8B898823F9F0BE016F5F7F4FCE01B4
:102E80000F9613DCD8011996ED91FC911A970280E8
:102E9000F381E02D89810995D8011996ED91FC9176
:102EA0001A970280F381E02D8A81099562E0CE01B4
:102EB0000F9645DCDECFD8011996ED91FC911A975B
:102EC0000284F385E02D0995D8011596ED91FC91CA
:102ED000169780E0099580E06396E4E00C9448241E
:102EE000AEE0B0E0E6E7F7E10C942B248C01DC01C6
:102EF0001796ED91FC9118970280F381E02D0995CA
:102F0000D801811108C01596ED91FC91169782E0C9
:102F1000099582E075C01796ED91FC911897019084
:102F2000F081E02D0995D8011796ED91FC91189745
:102F30000480F581E02D0995F82ED8011796ED91C2
:102F4000FC9118970484F585E02D0995BE016F5F0B
:102F50007F4F8F2DBADAD8011996ED91FC911A970F
:102F60000190F081E02D0995D8011996ED91FC9121
:102F70001A970280F381E02D8F2D0995D8011996BB
:102F8000ED91FC911A970280F381E02D8A810995D9
:102F90006B857C858D859E85D8011996ED91FC9178
:102FA0001A970680F781E02D09956B817C818D81D0
:102FB0009E81D8011996ED91FC911A970680F781B0
:102FC000E02D09956F81788589859A85D8011996B4
:102FD000ED91FC911A970680F781E02D0995D801B3
:102FE0001996ED91FC911A970284F385E02D0995CD
:102FF000D8011596ED91FC91169780E0099580E037
:103000002E96E5E00C944724A0E0B0E0EAE0F8E179
:103010000C942424EC01EF81F8850280F381E02DEB
:103020000995823040F0EF81F8850280F381E02D30
:1030300009958A3030F4ED81FE8181E0099581E0C7
:1030400035C0EF81F8850280F381E02D09958A3043
:1030500038F1EF81F8850480F581E02D0995D82EAF
:10306000EF81F8850480F581E02D0995C82EEF8168
:10307000F8850084F185E02D09954B015C01EF8115
:10308000F8850084F185E02D09957B018C01A5016F
:1030900094016C2D8D2DF1D98111D3CF11E001C098
:1030A00010E0ED81FE81812F0995812FCDB7DEB72C
:1030B000ECE00C9440240F931F93CF93DF93EC012B
:1030C000E985FA850190F081E02D09950BEB1CE074
:1030D000E985FA850280F381E02DD80194968C91E0
:1030E0000995E985FA850280F381E02DD801919652
:1030F0008C910995E985FA850280F381E02DD8014C
:1031000092968C910995E985FA850280F381E02DEC
:10311000D80193968C910995E985FA850284F38507
:10312000E02D0995ED81FE8180E0099580E0DF9139
:10313000CF911F910F9108950F931F93CF93DF931A
:10314000EC01E985FA850190F081E02D09950BEB02
:103150001CE0E985FA850280F381E02DD80198967C
:103160008C910995E985FA850280F381E02DD801DB
:1031700095968C910995E985FA850280F381E02D79
:10318000D80196968C910995E985FA850280F3819C
:10319000E02DD80197968C910995E985FA850284EE
:1031A000F385E02D0995ED81FE8180E0099580E0B1
:1031B000DF91CF911F910F9108950F931F93CF939C
:1031C000DF93EC01E985FA850190F081E02D099506
:1031D0000BEB1CE0E985FA850280F381E02DD80134
:1031E0009C968C910995E985FA850280F381E02D02
:1031F000D80199968C910995E985FA850280F38129
:10320000E02DD8019A968C910995E985FA8502807E
:10321000F381E02DD8019B968C910995E985FA857B
:103220000284F385E02D0995ED81FE8180E009950A
:1032300080E0DF91CF911F910F9108950F931F931D
:10324000CF93DF93EC01E985FA850190F081E02DC1
:1032500009950BEB1CE0E985FA850480F581E02DEA
:10326000D80155968D919C9156970995E985FA85D7
:103270000480F581E02DD80157968D919C91589747
:103280000995E985FA850480F581E02DD8015996E4
:103290008D919C915A970995E985FA850480F5816D
:1032A000E02DD8015B968D919C915C970995E985FD
:1032B000FA850480F581E02DD8015D968D919C9171
:1032C0005E970995E985FA850480F581E02DD8019E
:1032D0005F968D919C9190970995E985FA85028476
:1032E000F385E02D0995ED81FE8180E0099580E070
:1032F000DF91CF911F910F910895009731F0FC015C
:103300000580F681E02D80E0099508958DE799E12B
:10331000909388088093870887E898E00C94DA06F1
:10332000F5CF08951F93CF93DF93EC01EF81F885DC
:103330000480F581E02D0995182FE0911E05F0918C
:103340001F050995181305C0CE010E94CF0685E020
:1033500005C0ED81FE8186E0099586E0DF91CF9181
:103360001F91089510928C0810928D0810928E086B
:1033700010928F0810928B08109270001092B20079
:1033800080E28093B6008091B60080FDFCCF8091F2
:10339000B60080FDFCCF83E08093B1008091B60041
:1033A00081FDFCCF1092B0008091B60083FDFCCF70
:1033B0008FE18093B30087E087BB82E08093700049
:1033C000089580918C0890918D08A0918E08B091FD
:1033D0008F0830918B082091B20045E0880F991F2B
:1033E000AA1FBB1F4A95D1F7830F911DA11DB11DC7
:1033F00055E0880F991FAA1FBB1F5A95D1F7BC0132
:10340000CD01620F711D811D911D0895DADF862F98
:103410000895D7DFCB010895CF93DF93D82FC62F20
:10342000F5DF282F30E02D1B31096C2F70E081E093
:10343000621773070CF080E0DF91CF9108950F932E
:103440001F93CF93DF938C01EB01E3DF9C01201BE3
:10345000310B81E0C217D30708F080E0DF91CF91F4
:103460001F910F9108958F929F92AF92BF92CF922A
:10347000DF92EF92FF924B015C0169017A01A1DFBB
:10348000DC01CB0188199909AA09BB0921E0C816FA
:10349000D906EA06FB0608F020E0822FFF90EF90A5
:1034A000DF90CF90BF90AF909F908F9008951F9224
:1034B0000F920FB60F9211248F939F93AF93BF93E8
:1034C0001092B20080918B088F5F80938B088F31B0
:1034D000A9F480918C0890918D08A0918E08B091EC
:1034E0008F080196A11DB11D80938C0890938D08C3
:1034F000A0938E08B0938F0810928B08BF91AF9164
:103500009F918F910F900FBE0F901F901895F89478
:10351000E1E6F0E080E8808381E08083789408959C
:10352000FC0191818081823091F018F4813031F07A
:1035300008958330A9F08430E1F0089581B16111DC
:1035400003C09095982301C0982B91B9089584B138
:10355000611103C09095982301C0982B94B90895E8
:1035600087B1611103C09095982301C0982B97B93A
:1035700008958AB1611103C09095982301C0982BDA
:103580009AB90895FC0120819181828187FF05C04D
:1035900081E0613009F480E0682F2230D9F018F41E
:1035A000213031F00895233039F12430B9F10895F4
:1035B000613019F482B1982B05C0909582B16111E8
:1035C00003C0982392B90895892382B981B19823C1
:1035D00091B90895613019F485B1982B05C0909583
:1035E00085B1611103C0982395B90895892385B9E0
:1035F00084B1982394B90895613019F488B1982B57
:1036000005C0909588B1611103C0982398B90895B9
:10361000892388B987B1982397B90895613019F43F
:103620008BB1982B05C090958BB1611103C0982385
:103630009BB9089589238BB98AB198239AB90895C3
:10364000CF93DF93EC018A8183FF02C061E001C068
:1036500060E0CE0165DF8A8185FD04C086FF04C07D
:1036600061E003C060E001C062E0CE018BDFDF916A
:10367000CF91089580913E0190913F01E1DF8091CB
:103680003C0190913D01DCDF80913A0190913B013A
:10369000D7DF8091380190913901D2DF80913601D6
:1036A00090913701CDDF8091340190913501C8DFD1
:1036B0008091320190913301C3DF8091300190916C
:1036C0003101BEDF80912E0190912F01B9DF8091F1
:1036D0002C0190912D01B4DF80912A0190912B0152
:1036E000AFDF8091280190912901AADF8091260106
:1036F00090912701A5DF8091240190912501A0DF01
:1037000080912201909123019BDF80912001909173
:10371000210196DF80911E0190911F0191DF809120
:103720001C0190911D018CDF80911A0190911B0169
:1037300087DF809118019091190182DF8091160135
:10374000909117017DDF809114019091150178DF30
:10375000809112019091130173DF8091100190917B
:1037600011016EDF80910E0190910F0169DF809150
:103770000C0190910D0164DF80910A0190910B0181
:103780005FDF80910801909109015ADF8091060165
:103790009091070155DF809104019091050150DF60
:1037A00080910201909103014BDF80910001909183
:1037B000010146CFFC0191818081823069F018F4CB
:1037C000813031F00895833059F0843069F00895E4
:1037D00082B1982792B9089585B1982795B908952F
:1037E00088B1982798B908958BB198279BB9089507
:1037F000FC0121819081923059F020F4913071F4D4
:1038000080B109C0933031F0943041F489B103C0E4
:1038100083B101C086B1282381E009F480E0928160
:1038200097FF02C091E089270895E82FF0E0EC545B
:10383000F34F81E080830895E82FF0E0EC54F34FDC
:10384000908181E0911101C080E00895E82FF0E0BF
:10385000EC54F34F108208958BEE92E00C946802C2
:103860008BEE92E00C94F7028BEE92E00C948D03B9
:103870008BEE92E00C947102AB01BC018BEE92E0F6
:103880000C94D0028BEE92E00C94E7028BEE92E067
:103890000C94EC028BEE92E00C9403038BEE92E01E
:1038A0000C94880380EE92E00C94680280EE92E023
:1038B0000C94F70280EE92E00C948D0380EE92E07F
:1038C0000C947102682F80EE92E00C947C0280EEE2
:1038D00092E00C94E70280EE92E00C94EC02AB01D3
:1038E000BC0180EE92E00C94660380EE92E00C94B2
:1038F0008803D8DFB1CFCF93DF93EC018881882391
:1039000049F083E092DF0E94ED000E940B011092CB
:10391000940815C01092BC001092950883E096DFC1
:103920000E94F7000E9415018D81982F990F8091B8
:1039300094088170892B8093940881E08A839C810C
:1039400080919408992311F0816001C08E7F80934B
:1039500094089A8180919508992311F0806401C0A0
:103960008F7B809395089B8180919508992311F016
:10397000816001C08E7F809395081092930880919A
:1039800094088093BA00809193088093B800809146
:10399000950884608093BC00809192088360809336
:1039A000920889E380939308DF91CF9108950E9454
:1039B00001010E941F01ECEBF0E0808180688083B0
:1039C000808184708083089571CF08950F931F9331
:1039D000CF93DF93D82F8B0169DFC82FD81708F456
:1039E000CD2F79DFB8018C2F90E079DF7EDF8C2F2F
:1039F000DF91CF911F910F9108950F931F93CF9354
:103A00008B01C82F813808F0C0E832DFB8018C2F55
:103A100090E032DF37DF8C2FCF911F910F91089507
:103A200082E00ADF811104C081E006DF91E08111AC
:103A300090E0892F0895F4CF0895809390083EDF99
:103A400081E0F3DE83E0F8DE882351F08091910875
:103A500081608093910880919508846A8093BC006E
:103A600008950F931F93CF93C82F8B0188E998E097
:103A70000E94C10481E0E0DE882351F0B80188E9AA
:103A800098E00E940A05811103C010DF8C1790F3A3
:103A9000CF911F910F91089583E0CEDE81E0D6DEB5
:103AA00016CF809191088E7F8093910882E0BDDED1
:103AB000EDDE83E0C1DE882329F080919508846AD9
:103AC0008093BC000895089583E0B6DEE7DE82E0CF
:103AD000BDCEF0CE0895C8CE0895880F809391088A
:103AE000089586E998E00E949001811104C086E95A
:103AF00098E00C94720180E00895682F86E998E0C0
:103B00000C9481011F920F920FB60F9211240BB6E5
:103B10000F922F933F934F935F936F937F938F9366
:103B20009F93AF93BF93EF93FF938091B900887FEA
:103B3000803509F460C010F5803209F48FC068F454
:103B4000883009F440C020F4882309F477C0B8C055
:103B50008031C9F18831F1F1B3C0883309F46EC006
:103B600030F48832B9F1803309F478C0A9C08034C8
:103B700009F45BC0883409F471C0A2C0883809F424
:103B80007EC078F4803609F472C020F4883509F4D8
:103B900057C096C0803709F48DC0803809F46FC0D3
:103BA0008FC0883B09F471C038F4803A09F46BC0C7
:103BB000883A09F46AC084C0803C09F47BC0883C20
:103BC00009F478C07DC0809191088093BB008091FA
:103BD00095086EC045DE882321F05CDE8093BB0033
:103BE00064C080919508817084698093BC0082E0F4
:103BF0002DDE54DE65C081E01FDE882319F0809140
:103C0000BB0060DE80919008882319F0815080937A
:103C100090089091900880919508817091114DC005
:103C200084688093BC0081E020C0909190088091CE
:103C300095088170913009F040C03AC080E93EC0DB
:103C400081E0FADD882351F08091BB003BDE80915A
:103C5000900881508093900881E0F8DD809195086C
:103C6000817084698093BC0082E0F0DD29C080917E
:103C700095088170846C8093BC0020DE21C0809107
:103C8000BB0020DE17C023DE15C082E0D5DD811128
:103C900003C01092BB0009C0FDDD8093BB00E0DDD6
:103CA000811108C0FBDD82E0D1DD80919508817033
:103CB000846804C0809195088170846C8093BC00F6
:103CC000FF91EF91BF91AF919F918F917F916F91F4
:103CD0005F914F913F912F910F900BBE0F900FBEB0
:103CE0000F901F90189581E093E00C94680281E09A
:103CF00093E00C94F70281E093E00C948D0381E053
:103D000093E00C947102AB01BC0181E093E00C9450
:103D1000D00281E093E00C94E70281E093E00C9400
:103D2000EC0281E093E00C94030381E093E00C94B7
:103D3000880386EF92E00C94680286EF92E00C9480
:103D4000F70286EF92E00C948D0386EF92E00C94DC
:103D50007102682F86EF92E00C947C0286EF92E06D
:103D60000C94E70286EF92E00C94EC02AB01BC01EC
:103D700086EF92E00C94660386EF92E00C94880341
:103D8000D8DFB1DF1CBC80E880939C0980EC8CBD3F
:103D90001CBCE4E6F0E08081846080830895CF93CA
:103DA000DF93EC01809164008B7F809364009881A5
:103DB00080919C09992351F0806180939C090E9415
:103DC000A6000E94CD000E94D90009C08F7E80937A
:103DD0009C090E94B0000E94C3000E94CF009C81F9
:103DE00080919C09992311F0806201C08F7D80939E
:103DF0009C099B8180919C09992311F0816001C0ED
:103E00008E7F80939C099D8180919C09992311F05C
:103E1000806801C08F7780939C09998180919C096B
:103E2000923049F0933051F0913011F0837F07C008
:103E3000877F846004C08B7F886001C08C60809322
:103E40009C099A8180919C09923021F0933021F055
:103E5000913029F4816001C0826080939C09809137
:103E60009C0980648CBDDF91CF9108951CBCE4E671
:103E7000F0E08081846080830E94B0000E94E300B3
:103E80000E94C3000C94D90058CF08950F931F933C
:103E9000CF93C82F8B0166DFB8018C2F90E066DFCF
:103EA000C82F6ADF8C2FCF911F910F9108950F9328
:103EB0001F93CF938B01C82F813808F0C0E81FDF14
:103EC000B8018C2F90E01FDF24DF8C2FCF911F9142
:103ED0000F91089581E09091A109911180E00895DA
:103EE00081E09091A009911180E008952EDF81E09A
:103EF0008093A00908951092A00930CF16DF109288
:103F0000A10908950F931F93CF93C82F8B0115DF3D
:103F10008C17F0F48DE999E00E94C104CC23C1F024
:103F20000DB407FE0EC08EB514DFC150E0DE88234D
:103F300039F0F7DE8EBDDBDE811103C0DFDF01C0AB
:103F40001EBCB8018DE999E00E940A05882331F36F
:103F5000CF911F910F91089581E08093A109DDDE3B
:103F6000C6DE811102C01EBCC9CFDBDE8EBD089546
:103F7000EF92FF920F931F93CF93DF93C82F7B0194
:103F8000B6DE8C1710F4B3DEC82FCC23C9F00E9424
:103F9000BE048C01D0E0CD1791F0B701C8010E949A
:103FA000E20481110DC00DB407FEF5CF8EB59091DE
:103FB000A0099111CEDEB5DE8EBDDF5FECCF9EDFB6
:103FC000CDB7DEB7E6E062C4BCCE089594CE0895C6
:103FD000089582EA9AE00E949001811104C082EA69
:103FE0009AE00C94720180E00895682F82EA9AE0CA
:103FF0000C9481011F920F920FB60F9211240BB6F1
:104000000F922F933F934F935F936F937F938F9371
:104010009F93AF93BF93CF93EF93FF938CB58F771D
:104020008CBD8DB580939B09C1E0CC2399F0CEB5B2
:104030008091A109882339F074DE8EBD58DE81118C
:1040400003C05CDF01C01EBC8091A009882311F071
:104050008C2F7FDECDB5CC1FCC27CC1F0E94BA00A1
:104060008111E3CF8CB580688CBDFF91EF91CF912A
:10407000BF91AF919F918F917F916F915F914F9180
:104080003F912F910F900BBE0F900FBE0F901F907E
:1040900018950895CF93DF93EC018CE093E00E9494
:1040A000680287E193E00E9468021092C4001092B7
:1040B000C5001092C2001092C1008881823061F068
:1040C00018F4813039F004C0833049F0843031F085
:1040D0008FE205C087E103C08BE001C081E08093DF
:1040E000C4001092C5008981823079F018F48130C3
:1040F00049F004C0833069F0843079F08091C200C7
:1041000086600EC08091C2000BC08091C2008260A8
:1041100007C08091C200846003C08091C2008E609D
:104120008093C2008A81813019F08091C20003C05F
:104130008091C20088608093C2008B81813029F019
:10414000823039F08091C20007C08091C200806245
:1041500003C08091C20080638093C2008091C1003F
:1041600088608093C1008091C10080618093C1000C
:10417000DF91CF9108958CE093E00E948D0387E159
:1041800093E00C948D038CE093E00C94F7020F9372
:104190001F93CF93DF93D82F8B018CE093E00E9485
:1041A000F702C82FD81708F4CD2F8CE093E00E94B7
:1041B000EC026C2F70E0A8018CE093E00E94660393
:1041C0008CE093E00E9488038C2FDF91CF911F91A8
:1041D0000F9108950F931F93CF938B01C82F8138B0
:1041E00008F0C0E887E193E00E9471026C2F70E054
:1041F000A80187E193E00E94D00287E193E00E944A
:10420000E7028C2FCF911F910F91089581E00895BF
:104210009093A50A8093A40A8CE093E00E94710217
:1042200081E08093B70C089508951092B70C8CE04C
:1042300093E00C94E7029091B80C81E0911180E03A
:10424000089581E08093B80C87E193E00E94EC022E
:1042500087E193E00E94F702882359F08091C00023
:1042600085FFFCCF87E193E00E9403038093C600A3
:10427000EFCF87E193E00C948803089587E193E002
:104280000E9488031092B80C08958CE093E00C947F
:104290008D0387E193E00C948D03089581E00895E8
:1042A00008951F920F920FB60F9211240BB60F9222
:1042B0002F933F934F935F936F937F938F939F932E
:1042C000AF93BF93EF93FF9387E193E00E94F702D0
:1042D000882339F087E193E00E9403038093C600AE
:1042E00001C0CCDFFF91EF91BF91AF919F918F9172
:1042F0007F916F915F914F913F912F910F900BBEE6
:104300000F900FBE0F901F9018951F920F920FB62F
:104310000F9211240BB60F922F933F934F935F93FD
:104320006F937F938F939F93AF93BF93EF93FF937D
:104330008091A40A9091A50A892BC1F06091C600D2
:104340008CE093E00E947C028091A40A9091A50ADF
:104350008F3F2FEF920751F09C012150310930938C
:10436000A50A2093A40A892B09F45FDFFF91EF913E
:10437000BF91AF919F918F917F916F915F914F917D
:104380003F912F910F900BBE0F900FBE0F901F907B
:1043900018950895CF93DF93EC0182E293E00E9499
:1043A00068028DE293E00E9468021092CC001092A5
:1043B000CD001092CA001092C9008881823061F04D
:1043C00018F4813039F004C0833049F0843031F082
:1043D0008FE205C087E103C08BE001C081E08093DC
:1043E000CC001092CD008981823079F018F48130B0
:1043F00049F004C0833069F0843079F08091CA00BC
:1044000086600EC08091CA000BC08091CA00826095
:1044100007C08091CA00846003C08091CA008E608A
:104420008093CA008A81813019F08091CA0003C04C
:104430008091CA0088608093CA008B81813029F006
:10444000823039F08091CA0007C08091CA00806232
:1044500003C08091CA0080638093CA008091C90024
:1044600088608093C9008091C90080618093C900F1
:10447000DF91CF91089582E293E00E948D038DE257
:1044800093E00C948D0382E293E00C94F7020F9377
:104490001F93CF93DF93D82F8B0182E293E00E948A
:1044A000F702C82FD81708F4CD2F82E293E00E94BC
:1044B000EC026C2F70E0A80182E293E00E94660398
:1044C00082E293E00E9488038C2FDF91CF911F91AD
:1044D0000F9108950F931F93CF938B01C82F8138AD
:1044E00008F0C0E88DE293E00E9471026C2F70E04A
:1044F000A8018DE293E00E94D0028DE293E00E9439
:10450000E7028C2FCF911F910F91089581E00895BC
:104510009093A70B8093A60B82E293E00E94710216
:1045200081E08093B90C089508951092B90C82E24D
:1045300093E00C94E7029091BA0C81E0911180E035
:10454000089581E08093BA0C8DE293E00E94EC0222
:104550008DE293E00E94F702882359F08091C80011
:1045600085FFFCCF8DE293E00E9403038093CE0091
:10457000EFCF8DE293E00C94880308958DE293E0F1
:104580000E9488031092BA0C089582E293E00C9482
:104590008D038DE293E00C948D03089581E00895DE
:1045A00008951F920F920FB60F9211240BB60F921F
:1045B0002F933F934F935F936F937F938F939F932B
:1045C000AF93BF93EF93FF938DE293E00E94F702C6
:1045D000882339F08DE293E00E9403038093CE009C
:1045E00001C0CCDFFF91EF91BF91AF919F918F916F
:1045F0007F916F915F914F913F912F910F900BBEE3
:104600000F900FBE0F901F9018951F920F920FB62C
:104610000F9211240BB60F922F933F934F935F93FA
:104620006F937F938F939F93AF93BF93EF93FF937A
:104630008091A60B9091A70B892BC1F06091CE00C1
:1046400082E293E00E947C028091A60B9091A70BDE
:104650008F3F2FEF920751F09C0121503109309389
:10466000A70B2093A60B892B09F45FDFFF91EF9135
:10467000BF91AF919F918F917F916F915F914F917A
:104680003F912F910F900BBE0F900FBE0F901F9078
:104690001895CF93DF93C091F604D091F704CE0123
:1046A0000E94DF08CE010E94F90A0E94390EDF91B4
:1046B000CF9108958BE693E00C94C6138AE593E0BE
:1046C0000C94C61389E493E00C94C61388E393E03A
:1046D0000C94C6130E94C513EDDFF0DFF3DFF6CFB5
:1046E00081EC93E00E94F0118093D70308958AEA49
:1046F00093E00E94F0118093C003089583E993E052
:104700000E94F0118093A90308958CE793E00E9422
:10471000F011809392030895E3DFE9DFEFDFF5CF37
:104720008091F0049091F1040C9453110E94B915FA
:104730000C940F160E94470583E294E00E945005F6
:104740008CE394E00E94500585E594E00E945005BA
:1047500081EF93E00E9450058AE094E00E945005AA
:1047600088ED93E00C945005CF93DF930E943A1BA1
:104770000E94871A0E94B219CEECD4E0EAA1FBA1F4
:104780000180F281E02D0995ECA1FDA10180F2816B
:10479000E02D0995EEA1FFA10180F281E02D0995A0
:1047A000E8A5F9A50180F281E02D09950E94290D67
:1047B000DF91CF9108952CE930E042E950E064E1C7
:1047C00070E088EA9CE00C94901188EA9CE00C94DC
:1047D000D91188EA9CE00C94AD1188EA9CE00C9415
:1047E000C311E9CF089599E288E10FB6F894A8952E
:1047F000809360000FBE90936000A895B5DFF1DF55
:1048000048DF68DF89DF96DF8BDF90CFEE0FFF1F79
:104810000024001C0BBE0790F691E02D0994A29F86
:10482000B001B39FC001A39F700D811D1124911D84
:10483000B29F700D811D1124911D08952F923F92FA
:104840004F925F926F927F928F929F92AF92BF92A0
:10485000CF92DF92EF92FF920F931F93CF93DF934C
:10486000CDB7DEB7CA1BDB0B0FB6F894DEBF0FBEA9
:10487000CDBF09942A88398848885F846E847D84F6
:104880008C849B84AA84B984C884DF80EE80FD80F8
:104890000C811B81AA81B981CE0FD11D0FB6F8946E
:0E48A000DEBF0FBECDBFED010895F894FFCF2F
:1048AE006E047104740477047A047D048004830416
:1048BE00860489048C048F049204950498049B0446
:1048CE009E04A104A404A704AA04AD04B004B30476
:1048DE00B604B904BC04BF04C204C504C804CB04A6
:1048EE0002791C7B1CD71CE41CE61CFD1C1D1D3113
:1048FE001D4C1D1B1D101D511D631D641D691D6B5F
:10490E001D6D1D711D7D1D01C921CA213B22432232
:10491E0047226A228822942295229B228622A12255
:10492E00BD22BE22C522C922CD22CE22D0220149CD
:10493E00204A20BB20C320C720EA200821142115BD
:10494E00211B21062121213D213E21452149214DB9
:10495E00214E21502100C01ECF1E361F441F461F60
:10496E00571F761F821F7B1F6A1F701FAC1FB81F39
:10497E007E1FE41FE61FE81FE91FF51F01FFFFFF63
:10498E00FF0103037F06600000DF066000000100E8
:10499E000101010100000000000000000000000005
:1049AE0000000000000000000000000000000000F9
:1049BE0000000000000000000000000000000000E9
:1049CE0000000000000000000000000000000000D9
:1049DE000000000000000000610760000000000001
:1049EE000000E00EE10E270FA30F000000000000F4
:1049FE000000000000000000000000350F6D026195
:104A0E0002EF0EF30EF80EFD0E030F090F0D0FEB56
:104A1E000E110F150F190F1D0F230FFF2F0800007A
:104A2E00000000002000004F0800000000000020E1
:104A3E0000000000000000B815431546156515B7B7
:104A4E0015000000000000000000000F16D615E053
:104A5E0015DB15E515EE151716BF02F8150000014A
:104A6E001916023E1603251704041806991605702A
:104A7E0017075B18089C18091E190ADD180C9219E5
:104A8E009B080000000000008000001B09000000D1
:104A9E00000000800000A20900000000000080005D
:104AAE0000220A000000000000800000A60A00009C
:104ABE0000000000800000260B00000000000080B7
:104ACE000000A80B000000000000800000280C0071
:104ADE00000000000080000000AA04020000000098
:104AEE0000000000000000000000AD040200000005
:104AFE000000000000000000000000B004020000F2
:104B0E00000000000000000000000000B3040200DE
:104B1E0000000000000000000000000000CB0402B6
:104B2E000000000000000000000000000000000077
:104B3E000000FF00C804020000000000000000009A
:104B4E00000000000000000000FF00C5040200008D
:104B5E000000000000000000000000000000000047
:104B6E00FF00C20402000000000000000000000070
:104B7E0000000000000000FF0000000000FD061114
:104B8E000714073C07D308000000000000000000D7
:104B9E000000000000001F06200623062E068C06CD
:104BAE008D068E068F06900600000000000000B6EF
:104BBE0012B712BA12BF1229130000000000000033
:104BCE000000000000000000AD14B114B414BD14B8
:104BDE00D2140000000000000000000000000000E1
:104BEE0000130B240B270B380B0000000000001ADB
:104BFE000D1B0D00000000000000F208FA08FD0871
:104C0E000E09000000000000F70AF80A00000480F8
:104C1E0028044028042040041040040840040440A6
:104C2E00040240040140038040034040032040033F
:104C3E0010400308A0030428030210030110028091
:104C4E001002402802201002101002089002049058
:104C5E000202900201900180400140400120480173
:104C6E001028010828010428010228010128061A2B
:104C7E00091AE1190C1A1F1A331A9106BB06B4044D
:104C8E00B604B904BD04201B901AC21ADA1BF81B15
:104C9E00B5018E0167014001405060701C0D490D39
:104CAE00460D550D650D770D950DA60DB50DC20D65
:104CBE00C20DD80DE80DF70D040E040E230D260DB2
:104CCE001C0E2D0E000300000001004B0000000022
:104CDE0000000000000000000000000000000000C6
:104CEE0000000000000000000000000000000000B6
:104CFE0000000000000000000000000000000000A6
:0E4D0E00000000000000000000000000000097
:00000001FF
